:100000000C94A7000C9453080C94C4000C94D90BC6
:100010000C94C4000C942C0C0C94C4000C94C400DC
:100020000C94C4000C949F0A0C94C4000C94C4005B
:100030000C94C4000C94C4000C94C4000C94C40030
:100040000C944E0E0C94C4000C94C4000C94C40088
:100050000C94C4000C94C4000C94C4000C94D500FF
:100060000C94C4000C94C40003070809060A050C8C
:10007000040B10120F0D0E1113FA3E1A7ADE8EF6D3
:100080002E6078AE1CAA2A3ACEF30AB61E3838B8CB
:100090006E76DAFC60DAF266B6BEE0FEE6616C61AE
:1000A000726D206F66660053657420646179006428
:1000B0006F6E6500616C61726D20696E69740063BA
:1000C0006C6F636B20696E697400737065616B653A
:1000D0007220696E697400626F6F737420696E6953
:1000E000740076666420696E6974007475726E6956
:1000F0006E67206F6E20616C61726D73770074752E
:10010000726E696E67206F6E20627574746F6E73A5
:1001100000636C6F636B20696E6974002100776106
:100120006B6574696D650057414B455245534554A5
:10013000007A00616C61726D206F6E210062320086
:10014000623300623100736E6F6F7A6500001124B4
:100150001FBECFEFD8E0DEBFCDBF11E0A0E0B1E021
:10016000E4EEF1E202C005900D92A43FB107D9F789
:1001700012E0A4EFB1E001C01D92A132B107E1F796
:100180000E94BC0C0C94F0100C9400007894109217
:1001900017021092160220911602309117022817AA
:1001A0003907C8F30895A89508951F920F920FB6C6
:1001B0000F9211242F933F934F935F936F937F93ED
:1001C0008F939F93AF93BF93EF93FF9300B605FE7A
:1001D00028C080910302882309F041C05B9A85B151
:1001E000877D85B95E988CB58F7B8CBD809105022B
:1001F000882361F06091F80185E090E00E94E210B0
:100200006091F70186E090E00E94E21081E391E0C6
:1002100061E00E94230F15BC1092FD01109268004E
:1002200019C0809103028823D1F0809105028823B0
:1002300061F06091F80185E090E00E94E210609129
:10024000F70186E090E00E94E21087E291E061E031
:100250000E94230FE091F401F091F5010995FF91BF
:10026000EF91BF91AF919F918F917F916F915F912E
:100270004F913F912F910F900FBE0F901F901895A7
:1002800081E0809303025B9A8CB58F7B8CBD85B136
:10029000877D85B95E9815BC1092FD0110926800AB
:1002A00085B1897F85B98BB18F7C8BB928988AB14C
:1002B0008F7C8AB920985A985298E1E6F0E090E84D
:1002C000908388E08083449A83B7876083BF889552
:1002D00090831082449808958EE284B988E48AB9A4
:1002E00089E187B984E38BB981E085B995E0909382
:1002F000680080936B0080E380936D0008950F93F6
:100300001F9384E090E00E94DA1008E1602F0E94C1
:100310006A109093F90185E090E00E94DA101CE3E6
:10032000612F0E946A109093F80186E090E00E948D
:10033000DA10612F0E946A109093F70188E090E034
:100340000E94DA10612F0E946A109093010287E0E8
:1003500090E00E94DA10602F0E946A1090930002D1
:1003600081E090E00E94DA1064E60E946A109093A7
:10037000FC0182E090E00E94DA106DE00E946A10B9
:100380009093FA0183E090E00E94DA108F718093DD
:10039000FB0191E090930502E6EBF0E08081806242
:1003A000808385E08093B1009093700078941F91D2
:1003B0000F9108959C0183709070009739F4C901E2
:1003C00064E670E00E947610009761F4C90160E96C
:1003D00071E00E9476109C0181E02115310519F031
:1003E00080E0089581E008958AE090E00E94DA10AC
:1003F0008093FD0185B1866085B982E3809380009A
:100400008091FD01882329F080918000806880938D
:10041000800088E1809381008AEF90E090938700CC
:1004200080938600809186009091870096958795AD
:100430009093890080938800809188009091890032
:1004400090938B0080938A0008950F931F93CF930E
:10045000DF9300E810E0F8011082C1E8D0E01882D4
:10046000299A2A988AE090E00E94C6002A9A299840
:100470008AE090E00E94C60085B1897F85B982EB51
:10048000F801808388E18883DF91CF911F910F91DC
:1004900008951F93162F9C0140E050E060E472E441
:1004A0008FE090E00E94BF10309387002093860079
:1004B00080918600909187009695879590938B0008
:1004C00080938A0080918A0090918B00909389009C
:1004D0008093880020C08091810082608093810099
:1004E0008FEF91EEA4E081509040A040E1F700C072
:1004F0000000809181008D7F8093810085B1897F8C
:1005000085B98FEF91EEA4E081509040A040E1F7D3
:1005100000C0000011501123F1F685B1897F85B923
:100520001F9108958B3590F58E3110F08E3111F4B6
:100530008EE12DC0843210F483E229C0893210F498
:1005400088E225C08E3210F48DE221C0833310F48E
:1005500082E31DC0883310F487E319C08D3310F493
:100560008CE315C0823410F481E411C0873410F498
:1005700086E40DC08C3410F48BE409C0813510F48E
:1005800080E505C0863510F485E501C08AE587BDA4
:1005900083E084BD81E085BD84B5806884BD8091A1
:1005A0006E00816080936E00789408951F93182FD9
:1005B000262F842F3AE0632F0E946A10E92FF0E083
:1005C000ED56FF4FE491E0930E02E82FF0E0ED5678
:1005D000FF4FE491E0930D0210920C02822F0E94D3
:1005E0006A10E92FF0E0ED56FF4FE491E0930B0223
:1005F000E82FF0E0ED56FF4FE491E0930A021092ED
:1006000009028091F601882339F5812F90E00B963D
:100610006CE070E00E948A109C012F5F3F4FC9017F
:100620006AE070E00E948A10FC01ED56FF4FE491F1
:10063000E09308026D567F4FFB01649160930702BF
:100640001C3020F080910602816003C08091060278
:100650008E7F8093060216C0812F68E10E946A1087
:10066000892F632F0E946A10E92FF0E0ED56FF4FAB
:10067000E491E0930802E82FF0E0ED56FF4FE4919B
:10068000E09307021F9108958F929F92BF92CF929D
:10069000DF92EF92FF920F931F93DF93CF930F920E
:1006A000CDB7DEB7D090F901E090F801F090F701F6
:1006B0008AE080931C0220E05AE0C52E4CE3842E91
:1006C000912C08E110E08091190280FDD6C0809144
:1006D0001902882329F480911A02882309F4C7C0DB
:1006E000C0921C028091190281FF4AC01092190227
:1006F0002223B9F4D090F901E090F801F090F701CD
:100700008D2D6E2D4F2D0E94D602809107028160A3
:10071000809307028091080281608093080221E0A3
:100720002FC0213089F48D2D6E2D4F2D0E94D602C1
:1007300080910A02816080930A0280910B0281609D
:1007400080930B0222E01CC0223089F48D2D6E2D87
:100750004F2D0E94D60280910D02816080930D0280
:1007600080910E02816080930E0223E009C0D09236
:10077000F901E092F801F092F701109202027DC0B7
:100780008091190282FD04C080911A0282FF9BCFE2
:1007900010921902213001F58D2D90E00196B801DB
:1007A0000E948A10B82ED82E6E2D4F2D29830E94BC
:1007B000D60280910702816080930702809108022F
:1007C000816080930802B092F9016091F90184E0A0
:1007D00090E00E94E2103FC0223009F58E2D90E09B
:1007E0000196B4010E948A10B82EE82E8D2D6B2D33
:1007F0004F2D29830E94D60280910A028160809346
:100800000A0280910B02816080930B026091F801D3
:1008100085E090E00E94E210B092F8011CC0233005
:10082000D9F48F2D90E00196B4010E948A10B82E61
:10083000F82E8D2D6E2D4B2D29830E94D60280918E
:100840000D02816080930D0280910E028160809381
:100850000E02B092F701298180911A0282FF33CFF4
:100860008BE490E029830E94C60029812CCF8091DF
:100870001C02882309F036CF80CF0F90CF91DF91F3
:100880001F910F91FF90EF90DF90CF90BF909F90BE
:100890008F900895282F862F10920E0210920D022D
:1008A00010920C026AE00E946A10E92FF0E0ED5607
:1008B000FF4FE491E0930B02E82FF0E0ED56FF4F7D
:1008C000E491E0930A02109209028091F6018823D4
:1008D00011F52C3058F08091060281608093060259
:1008E000E8E8F0E0E491E0930D020AC0E9E7F0E007
:1008F000E491E0930D02809106028E7F80930602C0
:10090000E5E8F0E0E491E0930E02822F90E00B9690
:100910006CE070E005C0822F90E0479668E170E0DF
:100920000E948A1001966AE070E00E948A10FC0121
:10093000ED56FF4FE491E09308026D567F4FFB01A7
:100940006491609307020895AF92BF92DF92EF9295
:10095000FF920F931F93DF93CF930F92CDB7DEB724
:10096000E0900002D09001028AE080931C0240E0F7
:100970007AE0F72E6CE3A62EB12C08E110E080910E
:10098000190280FDA8C080911902882329F4809162
:100990001A02882309F499C0F0921C0213C0109225
:1009A0000202E0920002D09201026091000287E010
:1009B00090E00E94E2106091010288E090E00E94C5
:1009C000E21089C08091190281FF39C0109219028A
:1009D000442381F48E2D6D2D0E944A0480910702DC
:1009E00081608093070280910802816080930802F1
:1009F00041E025C0413081F48E2D6D2D0E944A04C6
:100A000080910A02816080930A0280910B028160CA
:100A100080930B0242E013C0E0920002D0920102E8
:100A20006091000287E090E00E94E2106091010274
:100A300088E090E00E94E210109202024CC0809187
:100A4000190282FD04C080911A0282FF98CF109291
:100A500019024130B1F48E2D90E00196B8010E9448
:100A60008A10E82E6D2D49830E944A048091070266
:100A70008160809307028091080281608093080260
:100A800018C04230B9F48D2D90E00196B5010E9456
:100A90008A10682FD82E8E2D49830E944A04809197
:100AA0000A02816080930A0280910B028160809328
:100AB0000B02498180911A0282FF61CF8BE490E0A2
:100AC00049830E94C60049815ACF80911C02882325
:100AD00009F078CF64CF0F90CF91DF911F910F91E4
:100AE000FF90EF90DF90BF90AF900895EF92FF924C
:100AF000CF93DF9310920602E82EE7017E01F92ED4
:100B0000E701A7E0B2E0E991EE23C1F08E2F815614
:100B10008A3120F4F0E0E85EFF4F07C08E2F80534B
:100B20008A3030F4F0E0ED59FF4FE491EC9301C0CE
:100B30001C92119692E0AF30B90729F7DF91CF915F
:100B4000FF90EF900895CF93DF93882309F06FC053
:100B50001092060282E08093090280930C02809139
:100B6000F601882331F58091FA012AE0622F0E9474
:100B70006A10E82FF0E0ED56FF4FE491E093070292
:100B80008091FA010E946A10E92FF0E0ED56FF4FC4
:100B9000E491E09308028091FB010E946A10E82F23
:100BA000F0E0ED56FF4FE491E0930A028091FB01E3
:100BB00025C08091FB012AE0622F0E946A10E82F75
:100BC000F0E0ED56FF4FE491E09307028091FB01C6
:100BD0000E946A10E92FF0E0ED56FF4FE491E09398
:100BE00008028091FA010E946A10E82FF0E0ED56A9
:100BF000FF4FE491E0930A028091FA010E946A108B
:100C0000E92FF0E0ED56FF4FE491E0930B02809165
:100C1000FC012AE0622F0E946A10E82FF0E0ED56F6
:100C2000FF4FE491E0930D028091FC01D1C081302F
:100C300009F0D7C08091FA01C82FD0E0E091FC0103
:100C4000F0E0E053F84F8091FA01833010F42C96D5
:100C500031972091FB0110920D0210920E0230E0AC
:100C60002F5F3F4F2E0F3F1FCE01880F991F280F78
:100C7000391FCF019695879596958795280F391F2F
:100C8000CF0160E971E00E947610260F371FCF0177
:100C900064E670E00E947610261B370B2196CE0189
:100CA000880F991F8C0F9D1F880F991F6AE070E0B5
:100CB0000E947610260F371FC90167E070E00E947E
:100CC00076108330B1F0843028F4813061F08230C6
:100CD00039F40CC0853099F0853070F0863091F091
:100CE00080E091E011C087E091E00EC08EE091E0DD
:100CF0000BC086E191E008C08FE191E005C088E279
:100D000091E002C08FE291E00E94760588EE93E0C8
:100D10000E94C60010920A0210920B0210920C025E
:100D20008091FA01863079F1873070F4833011F1C7
:100D3000843028F48130C1F08230D9F518C0843075
:100D4000E1F08530B1F51CC0893031F18A3028F4EA
:100D50008730E1F0883069F51CC08B3019F18B3099
:100D6000F0F08C3031F521C088E391E020C08CE3B5
:100D700091E01DC080E491E01AC086E491E017C0C4
:100D80008CE491E014C080E591E011C085E591E02C
:100D90000EC08AE591E00BC080E691E008C085E6D0
:100DA00091E005C08BE691E002C081E791E00E94EE
:100DB00076058091FB012AE0622F0E946A10E82FDD
:100DC000F0E0ED56FF4FE491E0930D028091FB01BE
:100DD0000E946A10E92FF0E0ED56FF4FE491E09396
:100DE0000E02DF91CF910895EF92FF920F931F9320
:100DF0008AE080931C0210E00AE0E02EFF24F394C6
:100E000004E680911902882329F480911A0288232C
:100E100009F4FBC0E0921C028091190280FDFBC026
:100E20008091190281FF61C0109219021123D1F43F
:100E30008091F601882339F087EA90E061E00E9412
:100E4000230F12E001C011E080E00E94A305809111
:100E5000070281608093070280910802816080937D
:100E6000080243C0113029F48091F601882339F03B
:100E70001EC0123069F58091F6018130A9F480918D
:100E8000F601882311F412E001C011E080E00E9415
:100E9000A30580910A02816080930A0280910B026F
:100EA000816080930B0221C0882319F011C081302A
:100EB00079F480E00E94A30580910D028160809307
:100EC0000D0280910E02816080930E0213E00DC02E
:100ED00083E68093020280E00E94A3058CED95E0FA
:100EE0000E94C6001092020296C08091190282FDF3
:100EF00004C080911A0282FF84CF1092190211302F
:100F000061F58091FA018F5F8093FA018091FA0177
:100F10008D3010F01093FA0180E00E94A3058091BB
:100F2000F601882359F480910702816080930702BB
:100F3000809108028160809308020AC080910A02B1
:100F4000816080930A0280910B02816080930B0282
:100F50006091FA0182E090E04DC0123061F580911D
:100F6000FB018F5F8093FB018091FB01803210F0C9
:100F7000F092FB0180E00E94A3058091F601813090
:100F800059F48091070281608093070280910802E2
:100F90008160809308020AC080910A028160809378
:100FA0000A0280910B02816080930B026091FB0129
:100FB00083E090E01FC01330F9F48091FC018F5F53
:100FC0008093FC018091FC01602F0E946A10909335
:100FD000FC0180E00E94A30580910D028160809356
:100FE0000D0280910E02816080930E026091FC01DF
:100FF00081E090E00E94E21080911A0282FF01CF0E
:101000008CE390E00E94C600FCCE80911C028823F5
:1010100009F002CF67CF1F910F91FF90EF900895D5
:101020004A9B23C08091FE018823E1F581E08093F3
:10103000FE01109215021092140287E791E00E94BF
:10104000760589E08093020288EE93E00E94C60054
:1010500080910002609101020E944A0488EE93E0B0
:101060000E94C6001092020208958091FE0188231A
:10107000C9F01092FE011092150210921402809194
:10108000FF01882379F08DE990E061E00E94230F51
:101090001092FF01809181008D7F8093810085B146
:1010A000866085B908951F920F920FB60F92112492
:1010B0001F932F933F934F935F936F937F938F93E0
:1010C0009F93AF93BF93EF93FF9389E60E940F0F17
:1010D00019B178948AE090E00E94C60089B114703A
:1010E000212F30E090E0847090702817390711F4B8
:1010F0000E941008FF91EF91BF91AF919F918F9146
:101100007F916F915F914F913F912F911F910F9020
:101110000FBE0F901F901895809103028823E1F174
:1011200080E880936100109261008EE191E061E0BF
:101130000E94230F109203028FE39CE90197F1F7BD
:1011400000C0000000B605FC27C00E946C0189E0C9
:1011500090E00E94DA100E94920281E58CBD5B98BB
:1011600043988AE090E00E94DA108093FD010E948B
:10117000F401A8950E94100880E793E061E00E94C6
:10118000490280EE96E061E00E94490280EC9DE019
:1011900061E00E944902A89508950F931F938AE089
:1011A00080931C028BE090E00E94DA108093F6019D
:1011B00010E00AE001C010E080911902882321F4B8
:1011C00080911A028823E9F100931C028091190290
:1011D00080FD3DC08091190281FF14C01092190258
:1011E000112369F48091F601882319F480E891E0D5
:1011F00002C089E891E00E94760511E003C01092D8
:10120000020225C08091190282FFD6CF10921902E6
:10121000113089F681E09091F601911180E0809380
:10122000F601882319F480E891E002C089E891E092
:101230000E9476058BE090E06091F6010E94E2103A
:10124000BBCF80911C02882309F0C0CFD8CF1F915B
:101250000F910895FF920F931F93DF93CF930F92F7
:10126000CDB7DEB78AE080931C028AE090E00E944E
:10127000DA10082F10E08AE0F82E01C010E080910B
:101280001902882329F480911A02882309F46DC079
:10129000F0921C028091190280FD6DC080911902AC
:1012A00081FF28C010921902112309F5002351F083
:1012B00082E991E00E94760580910B028160809323
:1012C0000B0204C08BE991E00E94760580910C022C
:1012D000816080930C0280910D02816080930D02E9
:1012E00080910E02816080930E0211E003C0109283
:1012F000020241C08091190282FFC1CF10921902EF
:10130000113009F0BBCF61E0011160E0062F6623C8
:1013100059F082E991E069830E94760580910B0281
:10132000816080930B0205C08BE991E069830E9484
:101330007605698180910C02816080930C02809116
:101340000D02816080930D0280910E028160809376
:101350000E028AE090E00E94E2100E94F40180EA0E
:101360009FE061E00E9449028ACF80911C0288239D
:1013700009F090CFBCCF0F90CF91DF911F910F91CB
:10138000FF9008953F924F925F926F927F928F925B
:101390009F92AF92BF92CF92DF92EF92FF920F9304
:1013A0001F938AE080931C0289E090E00E94DA108B
:1013B000182F20E00AE03EE1F32E9AE5692E85E53C
:1013C000782EB0E58B2EABE49A2EF6E4AF2EE1E456
:1013D000BE2E7CE3C72E67E3D62E52E3E52E4DE208
:1013E000542E38E2432E93E2392E01C020E0809142
:1013F0001902882329F480911A02882309F489C0EC
:1014000000931C028091190280FD89C0809119020D
:1014100081FF26C0109219022223D1F484EA91E0C0
:101420000E947605812F602F0E946A10E82FF0E05D
:10143000ED56FF4FE491E160E0930D02E92FF0E0FB
:10144000ED56FF4FE491E160E0930E0221E008C009
:101450001092020289E090E0612F0E94E2105FC0CA
:101460008091190282FD04C080911A0282FFBFCFD1
:1014700010921902213009F0B9CF1B5F1C3508F01A
:101480001EE1812F602F0E946A10E82FF0E0ED56D8
:10149000FF4FE491E160E0930D02E92FF0E0ED569B
:1014A000FF4FE491E160E0930E021F3180F11432AE
:1014B00010F437BC9CCF193210F447BC98CF1E32C1
:1014C00010F457BC94CF133310F4E7BC90CF18330B
:1014D00010F4D7BC8CCF1D3310F4C7BC88CF1234A6
:1014E00010F4B7BC84CF173410F4A7BC80CF1C34E1
:1014F00010F497BC7CCF113510F487BC78CF16352B
:1015000010F477BC74CF1B3511F067BC70CFF7BCFB
:101510006ECF80911C02882309F074CF99CF1F9160
:101520000F91FF90EF90DF90CF90BF90AF909F9082
:101530008F907F906F905F904F903F9008951F9293
:101540000F920FB60F9211242F933F934F935F93F7
:101550006F937F938F939F93AF93BF93EF93FF937B
:1015600080E880936100109261008091F7018F5FA5
:101570008093F7018091F7018C3338F01092F701D6
:101580008091F8018F5F8093F8018091F8018C338E
:1015900098F01092F8018091F9018F5F8093F90122
:1015A0006091F90184E090E00E94E2106091F801FE
:1015B00085E090E00E94E2108091F901883168F0A6
:1015C0001092F9018091FB018F5F8093FB01609184
:1015D000FB0183E090E00E94E2108091FB018032E9
:1015E00068F58091FB018F3181F48091FA0184309C
:1015F00029F18091FA01863009F18091FA01893050
:10160000E9F08091FA018B30C9F08091FB018E31B5
:1016100021F48091FA01823089F08091FB018D31B3
:10162000D9F48091FA018230B9F48091FC0190E004
:101630008053984F0E94DA01882371F481E08093EF
:10164000FB018091FA018F5F8093FA016091FA01AA
:1016500082E090E00E94E2108091FA018D3070F0FB
:101660008091FC018F5F8093FC0181E08093FA01FF
:101670006091FC0181E090E00E94E2108091030201
:10168000882309F06CC0809102028823C1F4809104
:101690000402882309F45AC08091F70180FF56C0E4
:1016A0008BEA91E00E9476058091FE01209106026E
:1016B000882311F0226001C02D7F209306028091C3
:1016C000FE018823E1F0909100028091F9019817C2
:1016D000B1F4909101028091F801981781F4809102
:1016E000F701882361F483E391E061E00E94230F16
:1016F00081E08093FF0110921502109214028091F4
:101700001C02882329F080911C02815080931C02C6
:1017100080911B02882329F080911B0281508093C5
:101720001B0280911402909115020097C1F001975D
:1017300090931502809314022091060280FF02C04C
:10174000226001C02D7F2093060209C08091F9011B
:101750006091F8014091F7010E94D602A5CFFF9158
:10176000EF91BF91AF919F918F917F916F915F9119
:101770004F913F912F910F900FBE0F901F90189592
:1017800088E592E0909315028093140286E491E03C
:1017900061E00E94230F84EB91E00E94760589E0CE
:1017A0008093020288EE93E00E94C600109202022B
:1017B00008951F920F920FB60F9211242F933F930B
:1017C0004F935F936F937F938F939F93AF93BF9349
:1017D000EF93FF9310926800789483B180FD23C04B
:1017E0008091180281FD24C08AE090E00E94C6002A
:1017F00018991EC00E9425028091FF01882319F0CC
:101800000E94C00B15C0809118028260809318025C
:10181000809119028260809319028DE391E061E06A
:101820000E94230F05C0809118028D7F80931802BB
:1018300085E080936800FF91EF91BF91AF919F91F8
:101840008F917F916F915F914F913F912F910F9069
:101850000FBE0F901F9018951F920F920FB60F9208
:1018600011242F933F934F935F936F937F938F93A5
:101870009F93AF93BF93EF93FF9310926800789478
:101880004D9920C08091180280FD21C08AE090E02F
:101890000E94C6004D995CC00E9425028091FF0104
:1018A000882391F5809118028160809318028091BD
:1018B000190281608093190283E491E061E00E9443
:1018C000230F05C0809118028E7F809318024C99D7
:1018D00038C08091180282FD3BC08AE090E00E94EF
:1018E000C6004C9935C082E080931B021BC04C9B04
:1018F00019C00E942502809118028B7F80931802E4
:101900008091FF01882319F00E94C00B21C080E460
:1019100091E061E00E94230F80911902846080931E
:10192000190216C080911B02882309F780911802C2
:1019300084608093180280911A02846080931A0256
:1019400007C010921A02809118028B7F80931802B0
:1019500085E080936800FF91EF91BF91AF919F91D7
:101960008F917F916F915F914F913F912F910F9048
:101970000FBE0F901F901895BF92CF92DF92EF92FB
:10198000FF920F931F9315BC569A5E9884B714BEAE
:1019900090E00E94820F88E10FB6F8948093600077
:1019A000109260000FBE2FE088E190E00FB6F8942F
:1019B000A895809360000FBE20936000A89511E069
:1019C00010930402109205028AE190E00E94020F37
:1019D0008CE191E061E00E94230F88E480BF8FECEE
:1019E00097E00197F1F700C0000000B605FE0BC0BC
:1019F00080B7806180BF81E191E061E00E94230FA8
:101A00000E947F0145C00E946C015B988EEF90E0C0
:101A100061E00E94230F8BEE90E061E00E94230FB3
:101A2000109369001DBB1092020282EE90E061E00B
:101A30000E94230F81E58CBD87ED90E061E00E945C
:101A4000230F89E090E00E94DA100E9492027894BD
:101A50008BE090E00E94DA108093F6018AEC90E02F
:101A600061E00E94230F0E94F40180EA9FE061E0A0
:101A70000E9449028FEB90E061E00E94230F0E94D8
:101A80007F0184EB90E061E00E94230F0E94100828
:101A90008FEA90E061E00E94230FE3E6BE2E73E040
:101AA000C72E67E0D62E56E0E52E48E0F42E04E07F
:101AB00015E0A89500B605FE03C00E944001F9CFCD
:101AC0008091190280FF4EC010921902809102028B
:101AD0008430C9F0853030F4882361F0833009F018
:101AE00056C01CC0863061F1863008F1873009F09D
:101AF0004EC02FC0009302028DEB91E00E9476054C
:101B00000E94A404D6CFC092020287EC91E00E940A
:101B100076050E94440310920402CBCF1093020278
:101B200080ED91E00E9476050E94F406C2CFE0921B
:101B3000020289ED91E00E9476050E94C209B9CFA8
:101B4000D092020282EE91E00E9476050E942A095C
:101B5000B0CFF09202028BEE91E00E9476050E94D7
:101B6000CD08A7CF8091190281FD04C08091190290
:101B700082FF9FCF10921902B092020281E00E9470
:101B8000A305A8958CED95E00E94C600A89510923B
:101B900002028FCF81E58CBD08958EBD0DB407FE86
:101BA000FDCF0895DF93CF9300D0CDB7DEB7F89483
:101BB0006A8379830E94CD0D7981872F0E94CD0D94
:101BC0006A81862F0E94CD0D409A409878940F909C
:101BD0000F90CF91DF910895AF92BF92CF92DF9295
:101BE000EF92FF920F931F93CF93DF93E62EE82F90
:101BF000F0E0E859FF4FE49121E030E002C0220F0D
:101C0000331FEA95E2F7B901882777FD8095982F71
:101C100020911D0230911E0240911F02509120021E
:101C2000A0E0B0E0CE2DD0E0F1E0EF2EF12C012DC0
:101C3000112DFE010A2E02C0F595E7950A94E2F7F0
:101C4000E0FF13C0FD01EF58FF4F249157016801D9
:101C500004C0AA0CBB1CCC1CDD1C2A95D2F7A60123
:101C600095016A297B298C299D291196A830B105F7
:101C700001F720931D0230931E0240931F025093E0
:101C800020020E94D20DDF91CF911F910F91FF9002
:101C9000EF90DF90CF90BF90AF9008951F920F927A
:101CA0000FB60F9211242F933F934F935F936F932F
:101CB0007F938F939F93AF93BF93EF93FF9378940A
:101CC000A8958091100290911102019690931102B3
:101CD000809310028132910508F46CC010921102B9
:101CE0001092100280911602909117020196909323
:101CF00017028093160280910F02893010F0109223
:101D00000F0280910F02E82FF0E0EA5FFD4F608143
:101D10000E94EC0D80910F028F5F80930F028091E3
:101D2000FF01882309F446C08091140290911502A6
:101D3000009709F03FC08091120290911302019622
:101D400090931302809312028536910598F11092B8
:101D50001302109212028AEF90E090938700809312
:101D60008600809186009091870096958795909344
:101D70008B0080938A0080918A0090918B009093D1
:101D80008900809388008091FF01807F49F08091D5
:101D9000FF018F708093FF01809181008D7F08C0CB
:101DA0008091FF01806F8093FF01809181008260AC
:101DB00080938100FF91EF91BF91AF919F918F919F
:101DC0007F916F915F914F913F912F910F900FBE37
:101DD0000F901F90189505C081509EE10000915012
:101DE000E9F78823C9F708950AC02FEF39E648E1DB
:101DF000215030404040E1F700C00000815088236E
:101E0000A1F708959093C5008093C40088E1809362
:101E1000C1008EE08093C200519A5098089590912D
:101E2000C00095FFFCCF8093C60080E090E008954D
:101E30008091C00087FFFCCF8091C60008958091FB
:101E4000C00080780895EF92FF921F93DF93CF93A5
:101E50000F92CDB7DEB77C0110E005C069830E9408
:101E60000F0F1F5F6981F701E10FF11D8491882336
:101E7000A9F7662331F08AE00E940F0F8DE00E94DF
:101E80000F0F0F90CF91DF911F91FF90EF9008956A
:101E9000EF92FF92CF93DF93E82EE7017E01F92EB8
:101EA000E70102C00E940F0F89918823D9F7DF91C3
:101EB000CF91FF90EF9008951F93CF93DF93182F4A
:101EC000C82FD0E09E0184E0359527958A95E1F7EB
:101ED0002A3031051CF4822F805D02C0822F895A7E
:101EE0000E940F0FCF70D070812F8F70CA30D10534
:101EF00014F4805D01C0895A0E940F0FDF91CF91C9
:101F00001F9108951F93182F892F0E945C0F812F16
:101F10000E945C0F1F910895EF92FF920F931F9301
:101F20007B018C01C8010E94820FC7010E94820FB1
:101F30001F910F91FF90EF900895AF92BF92CF92B3
:101F4000DF92EF92FF920F931F93CF93DF938C0159
:101F500025E0E22EF12C20E0C0E1D7E29AE0C92E84
:101F6000D12CC801BE010E947610B62E662329F43A
:101F7000222319F4C130D10529F48B2D805D0E94F4
:101F80000F0F21E0CE01B6010E9476100894E108FF
:101F9000F108E114F10489F04B2D50E04C9FC00191
:101FA0004D9F900D5C9F900D1124081B190BA62EC0
:101FB000E5015E01B72EE501D4CFDF91CF911F91EE
:101FC0000F91FF90EF90DF90CF90BF90AF9008956A
:101FD0004F925F926F927F928F929F92AF92BF9239
:101FE000CF92DF92EF92FF920F931F93CF93DF93E5
:101FF0005B016C01CAE0D0E04424E12C3AECF32E02
:102000003AE9032F3BE3132FC601B501A80197015D
:102010000E949D10922E222341F4442031F481E04D
:10202000E816F1040105110531F4892D805D0E9447
:102030000F0F44244394C801B7012AE030E040E088
:1020400050E00E949D10822E732E642E552E2197F3
:1020500089F0692D70E080E090E0A80197010E946E
:102060004B10A61AB70AC80AD90AE82CF72C062D75
:10207000152DCACFDF91CF911F910F91FF90EF9057
:10208000DF90CF90BF90AF909F908F907F906F9098
:102090005F904F900895629FD001739FF001829FDF
:1020A000E00DF11D649FE00DF11D929FF00D839FE7
:1020B000F00D749FF00D659FF00D9927729FB00D84
:1020C000E11DF91F639FB00DE11DF91FBD01CF0197
:1020D00011240895991B79E004C0991F961708F000
:1020E000961B881F7A95C9F780950895AA1BBB1B7C
:1020F00051E107C0AA1FBB1FA617B70710F0A61B08
:10210000B70B881F991F5A95A9F780959095BC0128
:10211000CD01089597FB092E07260AD077FD04D03C
:10212000E5DF06D000201AF4709561957F4F089581
:10213000F6F7909581959F4F0895A1E21A2EAA1B5C
:10214000BB1BFD010DC0AA1FBB1FEE1FFF1FA21767
:10215000B307E407F50720F0A21BB30BE40BF50B64
:10216000661F771F881F991F1A9469F760957095ED
:10217000809590959B01AC01BD01CF01089597FB1F
:10218000092E05260ED057FD04D0D7DF0AD0001C3B
:1021900038F450954095309521953F4F4F4F5F4F04
:1021A0000895F6F790958095709561957F4F8F4FC4
:1021B0009F4F0895F999FECF92BD81BDF89A992756
:1021C00080B50895262FF999FECF1FBA92BD81BD23
:1021D00020BD0FB6F894FA9AF99A0FBE01960895A9
:0421E000F894FFCFA1
:1021E40073756E646179006D6F6E646179007475E6
:1021F4006573646179007765646E736461790074F2
:1022040068757273646179006672696461790073D8
:1022140061747572646179006A616E00666562005A
:102224006D6172636800617072696C006D61790040
:102234006A756E65006A756C790061756773740000
:1022440073657074006F63746F62006E6F76656D92
:1022540000646563656D00616C61726D206F6E0072
:102264007573612D31326872006575722D32346870
:102274007200766F6C206869676800766F6C202046
:102284006C6F770062726974652000202020202022
:1022940020202000736E6F6F7A696E670073657417
:1022A40020616C61726D007365742074696D6500E2
:1022B4007365742064617465007365742062726967
:1022C400740073657420766F6C20007365742072DB
:0422D40065676E00CC
:00000001FF
