:100000000C9435040C9452040C9452040C94520435
:100010000C9452040C9452040C9452040C94520408
:100020000C946E040C9452040C9452040C945204DC
:100030000C9452040C9452040C9452040C945204E8
:100040000C94B5040C9452040C942B340C9452046C
:100050000C9452040C9452040C9452040C94040515
:100060000C9452040C9452045F1D6F1D7E1D991D4B
:10007000A11DA51DAF1DB31D021F1D1F291F441F5C
:10008000501F631F771F8B22D01FC222DC1FE61F69
:10009000E91FEC1F0C203220352038203B20472060
:1000A000592070208B209F20A220A520AF20B820AF
:1000B000C320C620DD20F2200221052108210C21C9
:1000C0000F211D2128212D213221352146214C21AE
:1000D00062216521682180219421A121A421C221CE
:1000E000C521C821D921DC21E621EB21F021F52110
:1000F000FA2100221A22FD2100221A22232226227E
:100100003222352238225A227122742279227E220A
:1001100081228B228E2291229B22A722B322B622F9
:10012000C222C522D122DF22E222E622EC22E623ED
:1001300012242C244A247C248F24A324C124DD24CB
:10014000EE24FF240F2535258C25CD25252699263F
:10015000EF26F9261F2745277A278427A827CE27A9
:100160000D281728212854285E28C228F628362969
:1001700062296C299E29A929102A192A222A5F2A74
:10018000982ACC2AD52A5F2B682B712BA42BAD2B58
:10019000DD2B0B2C2E2C512C772C802CDB2C1C2DAA
:1001A000252D802DC12DCB2DED2DF72D002E8C2E44
:1001B000DE2EE72E082F362F3F2F7F2F07302F30D0
:1001C00053308630AA30B330D7303631543188318D
:1001D0009231B931D5319A2F9A2F9E2F9A2F9A2F7B
:1001E0009A2F9E2F9E2F66347934A0348C34833519
:1001F00083358335833583358335E23483358335E1
:10020000353520357635BD34C234C834CD34D33499
:10021000D8342F3588358835DE342D6572726F728B
:100220002D00646563006E6F76006F637400736504
:100230007000617567006A756C006A756E006D61AB
:100240007900617072006D617200666562006A61BA
:100250006E002D6572726F722D0073617475726419
:1002600061790020667269646179007468757273DF
:10027000646179007765646E736461790074756593
:100280007364617900206D6F6E646179002073750D
:100290006E646179002D6572726F722D006A6C79DF
:1002A00020676F6F640072657665696C6C650062CB
:1002B00069672062656E006D6572792063687200FF
:1002C00070756C7365206C6F0070756C7365206859
:1002D00069006265657073206C6F0062656570739C
:1002E00020686900205B2057205920522057205950
:1002F000205B2057205B2059205720522052205944
:10030000205B2057205720572057205720000000FF
:100310000467087004740470086708740870047433
:100320000470086708740870047404700867087023
:100330001074087008670870047404700867087403
:1003400008700474047008670874087004740470FA
:10035000086708671870080008740874087408743F
:1003600008741077087408700874087008740870AE
:10037000107408700874087408740874087410778E
:100380000874087008740870086708671870080017
:1003900000000872106B086B086B0869086B187016
:1003A000106B086B10690869086908670869186BA1
:1003B00010670869106B086B086B0869086B187088
:1003C000107408740872087408720870086B086961
:1003D00018671067086B0872087208721074087446
:1003E000187210720872086B086B086B1070087036
:1003F000186B086B08670869106B086B086B086955
:10040000086B1870106B086B106908690869086739
:100410000869186B10670869106B086B086B08692E
:10042000086B1070087210740874087208740872EF
:10043000107008691867106708003000000010622B
:10044000106708670869086708661064106410641C
:1004500010690869086B0869086710661062106205
:10046000106B086B0870086B0869106710640864EB
:1004700008641064106910662067106210671067C6
:100480001067206610661067106610642062106B9B
:100490001070106B106910721062086208621064AC
:1004A00010691066206710000000030303000303B7
:1004B0000300030315000000030103000301030010
:1004C000030115000000E5EE7CE1D4D4E3C89CBD37
:1004D000F8B2EBA8709F7E960B8E12868C7E020778
:1004E0000B0F151C2633455D804B05470541053B29
:1004F0000529051F0517050D050305FD04901000CE
:100500001000008010021010100010000080100277
:10051000101010021000009010481024100000026B
:100520001020101010081000008010401002100859
:100530001010102010021004100000000D000C001C
:100540000000190018000000110000001000000B4E
:1005500010120F0D0E111303070809060A050C04EB
:10056000FC60DAF266B6BEE0FEE6EE3E9C7A9E8E57
:10057000BC6E6078AE1CAA2AFCCEF20AB61E7C7C49
:10058000B86E76DAFA3E1A7ADE8EF62E6078AE1CF7
:10059000AA2A3ACEF20AB61E3838B86E76DA736DE9
:1005A0007477746673002D6572726F722D006368C4
:1005B0006172006567006E696E65007A65726F0032
:1005C0006D69736320666D74006F66660061757493
:1005D0006F0079656172006F6666006F6E00776408
:1005E0006179006F6666006F6E00646174652066F5
:1005F0006D7400686964650073686F770067707375
:1006000000686964650073686F77006473740073D1
:1006100065702020206162007365702020613A625D
:1006200000686F7572730074696D6520666D740083
:10063000736574207A6F6E65007A6F6E65007765FA
:100640007400656574006365740064737400657597
:10065000006F6666006F6E007573610073657420CD
:1006600064737400636667207265676E00616E690B
:100670006D006F6666006F6E00616E696D61746516
:10068000640020637573746F6D20007765656B651A
:100690006E6473007765656B6461797300616C6C7F
:1006A00020646179730064697361626C6564006FD2
:1006B0006E206461797320006F66662064617973CF
:1006C00000656E61626C6564200064697361626CD0
:1006D0006564006F66662074696D650064697361A6
:1006E000626C6564007468727368006F666620648B
:1006F00061726B006175746F206F66660064696774
:1007000074206272690062206D61780062206D69F8
:100710006E0062726900627269006175746F0064D4
:100720006973702062726900636667206469737020
:100730000070756C73006F666600736E7A00616C92
:1007400072006F6E00612070756C736520006F66BB
:100750006600736E6F7A006120736E6F6F7A65004A
:1007600074696D650076206D61780076206D696E24
:100770000070726F6700766F6C006120766F6C7529
:100780006D65006120736F756E640063666720613C
:100790006C617200736574206461746500736574C4
:1007A0002074696D650020637573746F6D20007728
:1007B00065656B656E6473007765656B64617973FD
:1007C00000616C6C206461797300616C6172006F10
:1007D0006666006F6E00616C61726D0073657420F7
:1007E000616C617200736E6F6F7A696E6700616C25
:1007F0006172206F6666007765656B656E64730075
:100800007765656B6461797300616C6C20646179F4
:10081000730064697361626C656400616C61726D20
:1008200000616C61722073657400677073206C6F77
:100830007374006261642062617474006F74682074
:100840007273657400626F642072736574007077F0
:100850007220727365740070696E20727365740023
:100860007764742072736574000011241FBECFEF8B
:10087000D8E0DEBFCDBF11E0A0E0B1E0E8EBFDE6DF
:1008800002C005900D92A233B107D9F721E0A2E38F
:10089000B1E001C01D92AA3CB207E1F70E94A93560
:1008A0000C94DA360C9400008091390180FF02C06C
:1008B00080E480BF80913B0190913C01A0913D017B
:1008C000B0913E010196A11DB11D80933B01909313
:1008D0003C01A0933D01B0933E0108951F920F92F9
:1008E0000FB60F9211242F933F934F935F936F9303
:1008F0007F938F939F93AF93BF93EF93FF937894DE
:100900008091390180FF0AC0A8950E9454040E947A
:10091000F00C0E94910D0E94A81115C08091010158
:10092000882309F0A895109201010E9454040E94A6
:10093000F00C0E94910D0E94A8110E940E230E94AB
:100940001B140E94E032F894FF91EF91BF91AF9198
:100950009F918F917F916F915F914F913F912F91D7
:100960000F900FBE0F901F9018951F920F920FB609
:100970000F9211242F933F934F935F936F937F9325
:100980008F939F93AF93BF93EF93FF93F8948091CE
:100990007901882359F08091790181508093790100
:1009A000811104C00E94BC148093790180910001E0
:1009B000811112C07894FF91EF91BF91AF919F91F7
:1009C0008F917F916F915F914F913F912F910F90F8
:1009D0000FBE0F901F9018958150809300018111D8
:1009E000E9CF78940E94C01B0E947A0E0E94B9122F
:1009F0000E94C0230E94841881E08093010180E25C
:100A000080930001F894D6CF1F920F920FB60F92E9
:100A100011242F933F934F935F936F937F938F9303
:100A20009F93AF93BF93CF93EF93FF93F8948091ED
:100A3000390180FD3DC00E94A705882309F438C014
:100A40000E94C9130E94890D0E94AC1B0E94AB0634
:100A50000E94DA320E9427320E9471120E9492058F
:100A6000C0E882E090E00FB6F894C09361008093F4
:100A700061000FBE0E94F3050E94A90680E090E08D
:100A80000FB6F894C0936100809361000FBE789414
:100A90000E9489050E94E7100E9487230E94B91BCB
:100AA0000E94650D0E9415320E94CC320E9465188A
:100AB000FF91EF91CF91BF91AF919F918F917F91D6
:100AC0006F915F914F913F912F910F900FBE0F90BB
:100AD0001F90189584B7E9E3F1E0818314BE99E291
:100AE00088E10FB6F894A895809360000FBE9093AC
:100AF000600080818E7F80832C9A429A88E580BF37
:100B000082E080937F00E4E6F0E080818F6E808356
:100B1000089510923B0110923C0110923D011092F9
:100B20003E0108950C94890583B7816083BFF894D2
:100B300083B7817F83BF78948895F9CF85B7806626
:100B400085BF8F7D85BF78948895F894089580B788
:100B500085FB882780F90895809164008E7F8093BB
:100B600064008EE080937C0084EC80937A00809116
:100B70007A0086FDFCCF51E140E080E090E064E047
:100B800070E05150D9F020917A00206420937A00CF
:100B900020917A0026FDFCCF2091780030917900D9
:100BA000FB01E21BF30B8E0F9F1F099720F44F5F91
:100BB000433011F404C040E0C901E3CF9C0110921E
:100BC0007A0080916400816080936400223B314010
:100BD00020F080913901846003C0809139018F7EBB
:100BE000809339010895CF9383B7816083BF80914B
:100BF000390181608093390180E980BFC0E880912C
:100C00003B0190913C01A0913D01B0913E010A97BA
:100C1000A105B10559F40FB6F894A895809160002C
:100C2000886180936000109260000FBE80913B014C
:100C300090913C01A0913D01B0913E0188359240D8
:100C4000A105B10511F40E94AC05C0BF8091B600AA
:100C50008F71E1F78091390181FF07C083B7817FF0
:100C600083BF78948895F89406C083B7817F8660A7
:100C700083BF0E949E050E94A705813009F4BFCF63
:100C80008FE493EC0197F1F700C000000E94A705E4
:100C9000813009F4B4CF99E288E10FB6F894A895B1
:100CA000809360000FBE9093600088E580BF8091C4
:100CB00039018E7F80933901CF9108958091390158
:100CC00080FD0FC090913901892F847092FF0AC076
:100CD000809139018B7F809339010E940E2381E03E
:100CE000089580E008951F93CF93DF931FB7F89482
:100CF000CFE3D1E06D818AE190E00E94B7366E814A
:100D000089E190E00E94B7366F8188E190E00E940F
:100D1000B7361FBFDF91CF911F9108951F93CF93D7
:100D2000DF931FB7F894CFE3D1E0688587E190E0C7
:100D30000E94B736698586E190E00E94B7366A85E1
:100D400085E190E00E94B7361FBFDF91CF911F91E0
:100D500008950C948E060E948E060C947306609182
:100D60003F018BE190E00C94B7368BE190E00E945C
:100D7000A93680933F010895CF93DF93CFE3D1E06D
:100D8000698184E190E00E94B7366A8182E190E057
:100D9000DF91CF910C94B736CF93DF9384E190E04D
:100DA0000E94A936CFE3D1E0898382E190E00E94DE
:100DB000A9368A83DF91CF910895CF93DF93CFE354
:100DC000D1E06B8183E190E00E94B7366C8181E1D4
:100DD00090E0DF91CF910C94B736CF93DF9383E10E
:100DE00090E00E94A936CFE3D1E08B8381E190E0CF
:100DF0000E94A9368C83DF91CF910895EFE3F1E053
:100E000090819E7F9083F89485836683478378944E
:100E10000895962F9D7F993041F0943031F06230E3
:100E200031F4837031F08CE108958EE108958FE103
:100E300008958DE10895EF92FF920F931F93CF9342
:100E4000DF93F82EE62E142F282F30E08DE691E068
:100E5000289FE001299FD00D389FD00D1124FF203D
:100E600049F02196215031093595279535952795DB
:100E7000C20FD31F01E00E1540F4602F8F2D0E948A
:100E80000907C80FD11D0F5FF6CF812F90E005969F
:100E90008C0F9D1F67E070E00E941036DF91CF91AC
:100EA0001F910F91FF90EF900895873048F4E82F3D
:100EB000F0E0EE0FFF1FE35EFE4F80819181089509
:100EC00082E592E0089581508C3048F4E82FF0E0FC
:100ED000EE0FFF1FEB5FFE4F8081918108958AE145
:100EE00092E00895CF93F894809147018F5F8093AB
:100EF0004701809147018831B0F1109247018091FC
:100F000046018F5F80934601C09146016091450183
:100F1000809144010E9409078C1728F591E0909375
:100F20004601809145018F5F809345018D3038F0F7
:100F300090934501809144018F5F8093440180919B
:100F4000540190915501A0915601B09157018058DC
:100F50009E4AAE4FBF4F8093540190935501A0938A
:100F60005601B09357017894CF910895CF93909103
:100F70003F0191FD0DC0C82F80913F018260809399
:100F80003F010E94AF06CC2319F0CF910C94720759
:100F9000CF910895F8948091470181508093470143
:100FA000809147018831C8F187E1809347018091A2
:100FB00046018150809346018091460181112DC0E8
:100FC00080914501815080934501809145018111B7
:100FD00008C08CE08093450180914401815080934A
:100FE000440160914501809144010E94090780936A
:100FF00046018091540190915501A0915601B09104
:10100000570180589145A140B109809354019093B4
:101010005501A0935601B093570178940895CF934A
:1010200090913F0191FF0DC0C82F80913F018D7FAE
:1010300080933F010E94AF06CC2319F0CF910C940E
:10104000CA07CF910895CF9390913F0191FD02C0BF
:10105000C1E001C0C2E0C80F90914501933019F082
:101060009A30E9F038C060914501809144014FE128
:101070000E941B079FE1981B809146018917B8F1D8
:1010800080914601981788F14091470150E02C2F3C
:10109000CC0F330B81E04217530754F528C0609101
:1010A0004501809144014FE10E941B079FE1981B7D
:1010B000309146013917C8F0309146019317B8F0C6
:1010C0004091470150E02C2FCC0F330B81E04217A9
:1010D000530774F00CC080914501843040F090912A
:1010E000450181E09A3020F002C081E001C080E03B
:1010F000CF91089580914501833019F08B30E9F04C
:101100003FC0609145018091440141E00E941B076E
:10111000882321F09FE0981B892F01C088E09091DF
:1011200046019817C8F190914601891798F190915E
:10113000470181E0923088F52FC060914501809190
:10114000440141E00E941B07882321F098E0981B8E
:10115000892F01C081E0909146019817D8F09091B5
:1011600046018917C8F080914701882399F0809142
:101170004701823088F480913F01869581700895FF
:1011800080914501843040F09091450181E09B3091
:1011900020F002C081E0089580E00895CF93C82F29
:1011A00080913F0190913F01907F903279F018F447
:1011B000903151F004C0903359F0903411F08270A6
:1011C0000AC00E947A0807C080E003C081E001C025
:1011D00082E00E942308882321F08C2FCF910C9469
:1011E000B6078C2FCF910C940F08CF92DF92EF921D
:1011F000FF92CF93DF938091500190915101A09184
:101200005201B091530180359B4FAF4FBF4F6CF0EF
:101210008091500190915101A0915201B0915301E0
:10122000813B9440A105B1059CF0109254011092AD
:101230005501109256011092570110925A011092C6
:10124000500110925101109252011092530103C1AA
:101250008091500190915101A0915201B0915301A0
:10126000823F9F4FAF4FBF4F6CF0809150019091E4
:101270005101A0915201B09153010F97A105B10501
:101280000CF4E9C080914A0190914B01892B19F52A
:1012900060915401709155018091560190915701D0
:1012A00020915001309151014091520150915301D0
:1012B0000E945A3669017A01F7E0F594E794D794D1
:1012C000C794FA95D1F7C11480E8D806E104F10477
:1012D0000CF0A8C051C060915401709155018091EB
:1012E00056019091570120914A0130914B01032EF4
:1012F000000C440B550B0E945A36BA01A901E7E0D5
:101300007595679557954795EA95D1F78091540162
:1013100090915501A0915601B0915701841B950BF6
:10132000A60BB70B8093540190935501A0935601DF
:10133000B09357018091500190915101A0915201B9
:10134000B0915301840F951FA61FB71F80935001C2
:1013500090935101A0935201B09353018091500199
:1013600090915101A0915201B0915301892B8A2B88
:101370008B2B09F08DCF6FC0C11420E8D2062FEF60
:10138000E206F20634F4C12C30E8D32EEE24EA94BF
:10139000FE2C109254011092550110925601109299
:1013A000570110925A01109250011092510110925F
:1013B000520110925301D701C6018696A11DB11D9D
:1013C0008D349105A105B10508F445C08FE090E08A
:1013D0000E94A936C82F80E190E00E94A936D82F3C
:1013E0008C2F90E0880F991FB6018F5F9F4F0E944E
:1013F000C53681E08C0FCD2FD81708F4C82F67E0D1
:101400000E94F635692F8FE090E00E94B7366C2F6E
:1014100080E190E0DF91CF91FF90EF90DF90CF904F
:101420000C94B73610925401109255011092560147
:101430001092570110925A011092500110925101CE
:101440001092520110925301CC24CA948FE7D82EE7
:10145000E12CF12CBBCFDF91CF91FF90EF90DF908B
:10146000CF9008955F926F927F928F929F92AF92EA
:10147000BF92CF92DF92EF92FF920F931F93CF9381
:10148000DF9380E190E00E94A936782E982E969402
:1014900081119394812CC0E0D0E0A12CB12C612C5F
:1014A000CC24C394D12C9814E1F181E0E82E80E0A3
:1014B000F82E00E010E0C1E0D0E0502E071530F526
:1014C000C501002E02C0959587950A94E2F780FD2C
:1014D00017C0C7010E94B136292F2095221F22274D
:1014E000221F3D2F331F3327331F231721F0C81727
:1014F000D90724F005C08C179D0714F4EC01652C66
:101500000F5F1F4F82E0E80EF11CD7CFC601062CFB
:1015100002C0880F991F0A94E2F7A82AB92A839477
:10152000C2CF2FB7F894D0934B01C0934A0180915A
:101530004A0190914B01181619062CF480914A012A
:1015400090914B0107C080914A0190914B01919578
:101550008195910990934D0180934C012FBFDF91AC
:10156000CF911F910F91FF90EF90DF90CF90BF90A0
:10157000AF909F908F907F906F905F900895CF93E2
:101580008AE190E00E94A93664E60E94F6359093C5
:10159000440189E190E00E94A9366DE00E94F63591
:1015A0009093450188E190E00E94A9368F71809365
:1015B000460187E190E00E94A93668E10E94F63575
:1015C0009093470186E190E00E94A936CCE36C2F0E
:1015D0000E94F6359093480185E190E00E94A9367B
:1015E0006C2F0E94F635909349018091450181113D
:1015F00003C081E08093450180914601811103C0C1
:1016000081E0809346010E94320A10924D011092AF
:101610004C011092590110925801109254011092ED
:101620005501109256011092570110925A011092D2
:1016300050011092510110925201109253011092D8
:101640004F0110924E010E94B5060E94CC060E94E6
:10165000ED0680913F01816080933F01809164009D
:101660008F7B809364008091B60080628093B60087
:1016700082E08093B00086E08093B1008FE7809392
:10168000B3001092B40084E080937000CF9108956D
:10169000CF932FB7F8948091540190915501A09168
:1016A0005601B09157010196A11DB11D80935401BF
:1016B00090935501A0935601B09357012FBF2FB7B8
:1016C000F89480914C0190914D01892B49F08091C3
:1016D0004C0190914D01019790934D0180934C01E5
:1016E0002FBF2FB7F89480914C0190914D01892B19
:1016F00089F480914A0190914B011816190654F40F
:1017000080914A0190914B0190934D0180934C013F
:101710008EE71AC080914C0190914D01892B99F46C
:1017200080914A0190914B0197FF0DC080914A0131
:1017300090914B0191958195910990934D018093E2
:101740004C0180E801C08FE72FBF9091390190FFD5
:1017500022C09FB7F89420914E0130914F01232B66
:1017600051F020914E0130914F01215031093093B9
:101770004F0120934E0120914E0130914F01232BB8
:1017800011F09FBF08C020EF3AE030934F01209343
:101790004E018150F6CF8093B3008091390180FDD6
:1017A0001CC0CFB7F8948091580190915901892BB2
:1017B00099F08091580190915901019790935901A6
:1017C000809358018091580190915901892B21F4FF
:1017D0000E94F5080E94320ACFBFCF9108958F92E0
:1017E0009F92AF92BF92CF92DF92EF92FF920F93B0
:1017F0001F93CF93DF93182FD62FC42F0FB7F894D2
:1018000083B5816083BD9091B2001092B20028E54B
:1018100032E03093590120935801B99B0AC00E94CD
:10182000480B809149018F5F8093490182E087BB1B
:1018300090E080915A01890F80935A01809149016B
:1018400080FF05C080915A018F5F80935A0180917B
:101850005A018F3760F080915A018F5780935A0157
:101860000E94480B809149018F5F809349018091CC
:101870003F0180FF17C01092590110925801109239
:101880005401109255011092560110925701109276
:101890005A0110925001109251011092520110926F
:1018A000530185C080914701A12FA81B4091480199
:1018B000E09149010A2E000CBB0B2CE330E00E94A2
:1018C0007F362D2F241BC22E220FDD08EE08FF08C5
:1018D000A7019601260F371F481F591FACE3B0E040
:1018E0000E9486368090500190905101A090520144
:1018F000B09053014C2F4E1BC42E440FDD08EE0850
:10190000FF08AB01BC014C0D5D1D6E1D7F1DDB0191
:10191000CA01880D991DAA1DBB1D8093500190938B
:101920005101A0935201B0935301809150019091C5
:101930005101A0915201B0915301813C984AA105F7
:10194000B105A4F08091500190915101A0915201F4
:10195000B091530180589145A140B1098093500145
:1019600090935101A0935201B09353018091500183
:1019700090915101A0915201B0915301803497454B
:10198000AF4FBF4FA4F48091500190915101A091AD
:101990005201B091530180589E4AAE4FBF4F809381
:1019A000500190935101A0935201B09353011093B1
:1019B0004701D0934801C093490180913F018E7F38
:1019C00080933F010FBFDF91CF911F910F91FF9047
:1019D000EF90DF90CF90BF90AF909F908F90089541
:1019E0001F93CF93DF93F894C1E0D1E0CC2349F06B
:1019F000809149018F5F80934901809149018C3327
:101A000048F4789480914901811152C081E00E948C
:101A1000CE084EC010924901809148018F5F80939B
:101A20004801809148018C3360F310924801809105
:101A300047018F5F8093470180914701C0E0883163
:101A400000F310924701809146018F5F8093460119
:101A50006091460188E190E00E94B73610914601FE
:101A600060914501809144010E940907811748F661
:101A7000D0934601809145018F5F8093450160912D
:101A8000450189E190E00E94B736809145018D3093
:101A900008F4B7CFD0934501809144018F5F8093C4
:101AA0004401609144018AE190E00E94B7369ECFE4
:101AB000DF91CF911F910C94480BEBE5F1E0808909
:101AC0008687868560E00C94A71052985A9A82E027
:101AD0008A95F1F74A9B06C080915B0181608093F3
:101AE0005B0111C080915B0181FD0E9467138091B1
:101AF0005B01887F80935B01809178018F7E80936A
:101B000078010E940D1880915B0181FD0C945D0DA0
:101B100008955A98529A80915B0181FD0C945D0D55
:101B200008950F931F93CF93DF9300E010E0D0E070
:101B3000F801E55AFE4F838587FF20C09091470149
:101B4000858198131BC0909148018085981316C019
:101B500080914901811112C0C38540914601609175
:101B60004501809144010E941B072C2F30E002C0E8
:101B7000359527958A95E2F720FDD1E00F5F1F4F3D
:101B800003301105A9F680915B0182FF11C080919D
:101B90005E0190915F01019690935F0180935E01D9
:101BA00020915C0130915D018217930709F4D1E027
:101BB0008091390180FF0AC0D11104C080915B017E
:101BC00081FF3BC00E94650D0E94890DDD23A9F1B4
:101BD00080915B0180FF31C010925F0110925E0125
:101BE00080915B018B7F80935B0180915B018260C0
:101BF00080935B0180915B0184FF06C08091780136
:101C000080618093780107C0809178018F7E8093F6
:101C100078010E940D188091390180FF03C08091E6
:101C20006B0102C080916A01809369018091690112
:101C300060E00E94A7100E94111280915B0181FF59
:101C400054C00E9409149091690180916B0198170A
:101C500070F520915E0130915F0180916D0190914E
:101C60006E012817390748F0809169018F5F8093D2
:101C7000690110925F0110925E0160915E017091A6
:101C80005F0120916D0130916E01C0916901CB011E
:101C9000A0E0B0E06627782F892F9A2F40E050E02F
:101CA0000E943836622F8C2F0E94A71015C0809199
:101CB0005E0190915F018D32914070F080915B01E7
:101CC0008D7F80935B01809178018F7E8093780176
:101CD0000E940D180E94671380915E0190915F0130
:101CE000019690935F0180935E01DF91CF911F91E8
:101CF0000F9108954A9B16C080915B0180FF03C03D
:101D0000109232010895809132018F5F80933201E9
:101D1000883240F180915B01816080935B010E9479
:101D200089231EC080915B0180FFEACF8091320140
:101D30008F5F809332018832A8F080915B0181FD32
:101D40000E94671380915B01887F80935B01809183
:101D500078018F7E809378010E940D180E94922353
:101D60000C94091408950F931F93CF93DF93C82FFA
:101D7000D0E0CE01895D9F4F0E94A93668E10E94A4
:101D8000F6358E01055A1E4FF8019583CE018C5D04
:101D90009F4F0E94A9366CE30E94F635F8019087A8
:101DA000CE018F5D9F4F0E94A936F8018387DF9196
:101DB000CF911F910F9108950F931F93CF93DF93AE
:101DC000C82FD0E08E01055A1E4FF8016581CE0163
:101DD000895D9F4F0E94B736F8016085CE018C5D0A
:101DE0009F4F0E94B736F8016385CE018F5D9F4FEC
:101DF000DF91CF911F910F910C94B736CF93DF9362
:101E0000CBE5D1E06F858EE190E00E94B73668891E
:101E10008DE190E0DF91CF910C94B73660916C0129
:101E20008CE190E00C94B736EBE5F1E081896089B4
:101E300027853CE3839FC001112470E0621B710978
:101E40006F5F7F4F0E942436738B628B089580E012
:101E50000E94B30E81E00E94B30E82E00E94B30E96
:101E600080E290E00E94A936807F80935B018FE141
:101E700090E00E94A9366FE10E94F635892F90E02C
:101E800090935D0180935C018CE190E00E94A93603
:101E90006DE30E94F63590936C018DE190E00E9415
:101EA000A9366BE00E94F63590936B018EE190E0CD
:101EB0000E94A93680936A0120915C0130915D01F6
:101EC0004CE3429FC001439F900D112490935D010C
:101ED00080935C0190916A0180916B01891720F4D5
:101EE00080916B0180936A0120916A0180916B015E
:101EF00090E0820F911D9595879560E00E94A71054
:101F000080916C01811103C081E080936C010E947B
:101F1000140F0C94890D80915C0190915D016CE32C
:101F200070E00E9410368FE190E00C94B73660911B
:101F30005B01607F80E290E00C94B73680915C0199
:101F400090915D01892B49F180915B0181FF25C052
:101F500080915B018D7F80935B0180915B01846048
:101F600080935B0110925F0110925E0180915B0192
:101F700085FF06C08091780180618093780107C059
:101F8000809178018F7E809378010E940D180E94C5
:101F900067130E949B2381E0089590915B01892F34
:101FA000847092FF05C010925F0110925E0180E084
:101FB0000895CF92DF92EF92FF920F931F93CF93EA
:101FC000DF93E0E0F0E0EF01C55ADE4FAD81809194
:101FD0004701A81B488550914801009149010A2EEC
:101FE000000CBB0B2CE330E00E947F36242F251B16
:101FF000C22E220FDD08EE08FF08A7019601260F6A
:10200000371F481F591FACE3B0E00E948636019588
:10201000002E000C110B220B330BDC01CB01800FC7
:10202000911FA21FB31F813C28EA9207A105B105A9
:102030002CF080589145A140B1090BC0803427E5B0
:1020400092072FEFA207B20724F480589E4AAE4FA2
:10205000BF4F0596A11DB11D0B97A105B10538F025
:102060003196E330F10509F0AECF80E001C081E0A8
:10207000DF91CF911F910F91FF90EF90DF90CF9064
:10208000089560916F01607F8AE290E00C94B7360A
:1020900080916F01807F803301F138F4803169F1E4
:1020A0008032C1F0811120C00895803569F028F494
:1020B0008034D1F48EE394E012C0803641F0803752
:1020C00099F482E993E00BC084EE92E008C080E1CD
:1020D00093E005C088EB94E002C08AEA94E0909314
:1020E000770180937601089580916F018F708093BE
:1020F0006F0180916F0180936F0108958AE290E0F3
:102100000E94A936807F80936F010C94481084B19F
:10211000866084B985B1897F85B9E4E6F0E0808185
:10212000877F80830C947E1080916F01807F805F19
:10213000813708F080E090916F019F7090936F015C
:1021400090916F01892B80936F010C9448109091AE
:10215000390190FF03C08A3008F48F5F282F30E0E8
:10216000F901E252FB4FE491F0E0F0937201E09349
:1021700071018A30F0F46623E1F0F901E152FB4F7E
:10218000E4918091710190917201209171013091DF
:102190007201F0E0E81BF90B6E9FC0016F9F900D7C
:1021A0001124892F9927820F931F90937201809396
:1021B0007101809171019091720123E0880F991F44
:1021C0002A95E1F7909372018093710108958091AF
:1021D0006F018F70833051F580918000882331F139
:1021E0008091860090918700880F991F880F991F12
:1021F0009093870080938600809188009091890059
:10220000880F991F880F991F9093890080938800E9
:1022100080918600909187002091880030918900FC
:10222000821B930B90938B0080938A0008952091DA
:10223000860030918700369527952052310980918C
:1022400086009091870096958795409645B1497F85
:1022500045B9409181004423E9F04FB7F89460916B
:102260008400709185002617370790F460918400F0
:10227000709185006817790758F460918400709117
:10228000850068177907C8F31092800010928100CA
:102290004FBFDFCF08959C012227211541E034076D
:1022A000E1F0211543E0340721F0232B31F40C94A5
:1022B000171120E08EED96E113C0292F22952F7083
:1022C0002350FC01EE27FF70EF2FFF27EE0FFF1FBB
:1022D000EA53FB4F8591949103C020E08FE997E08A
:1022E00002C0969587952A95E2F79C013695279529
:1022F00040917101509172014217530720F42091CF
:102300007101309172014091390140FF08C09695EA
:102310008795969587953695279536952795909329
:10232000870080938600109285001092840030937D
:10233000890020938800821B930B90938B008093DD
:102340008A0082EB8093800089E180938100089568
:1023500080916F018F70833031F0843041F580912E
:10236000390180FF24C0809173019091740101961E
:10237000909374018093730180FF12C080916F016C
:10238000807F803111F0803319F480E093E002C047
:1023900080E091E00E944B1180913901826005C07C
:1023A0000E941711809139018D7F80933901089522
:1023B00080916F018F7091F480916F01807F809385
:1023C0006F0180916F01826080936F0188E090E0DF
:1023D0009093740180937301299A2A980895CF935A
:1023E000DF93EC0190916F019F7093509430B0F0A7
:1023F0000E94171180916F01807F80936F018091FF
:102400006F01816080936F01D0937401C093730159
:1024100080E091E0DF91CF910C944B11DF91CF914F
:1024200008950E94171180916F01807F80936F0142
:1024300080916F0180937001809145018C3049F447
:1024400080914601893129F480E480936F010E94D4
:10245000481080916F01807F11F0803121F48091CC
:102460006F01836003C080916F01846080936F016E
:102470001092750110927401109273010895809169
:102480006F018F7083508230E0F00E9417118091AD
:102490006F01807F80936F0180916F01807F11F0C9
:1024A000803121F480916F01856003C080916F01BC
:1024B000866080936F0110927501109274011092E2
:1024C000730108950E941711EFE6F1E08081807F8B
:1024D000808380818083E9E3F1E080818D7F808348
:1024E000089580916F018F708330A9F0843019F0C6
:1024F00081113CC0089580916F01807F80936F01AE
:1025000080916F01836080936F011092740110922B
:1025100073010C94171180918000882349F18091F8
:1025200086009091870096958795969587959093CC
:10253000870080938600809188009091890096950D
:1025400087959695879590938900809388008091D0
:102550008600909187002091880030918900821B2D
:10256000930B90938B0080938A0008950C946212D1
:10257000089580916F018F708430F1F128F48130DB
:1025800081F0823031F008958530A9F08630A1F1D4
:1025900008958091730190917401049711F42A9A1F
:1025A00029988091730190917401892B09F085C05D
:1025B0000E94621282C08091730190917401892BF4
:1025C00091F480916F01807F803119F080E091E07B
:1025D00002C080E093E00E944B1180E496E090936B
:1025E0007401809373018091730190917401803222
:1025F000934009F062C057C08091730190917401BB
:10260000892B09F040C0E0917601F091770180912B
:102610007501E80FF11DE80FF11D859194919C0162
:10262000332730937401209373012091730130910B
:102630007401232BA1F410927501E0917601F091C1
:10264000770180917501E80FF11DE80FF11D85916B
:1026500094919C013327309374012093730120914E
:1026600073013091740145E0220F331F4A95E1F761
:1026700030937401209373010E944B118091750176
:102680008F5F8093750180916F01807F8033A9F007
:10269000803619F0803251F410C08091730190910E
:1026A0007401809751F40E94171107C08091730143
:1026B0009091740180349105B1F3809173019091F0
:1026C0007401019790937401809373010895809130
:1026D0006F018F708350823040F48091700180933D
:1026E0006F010E9448100C946212089580916F014E
:1026F0008F708550823010F40C946212089580918E
:102700006F01807F8033E9F038F48031A1F08032AE
:10271000A9F081111FC021C08035B1F028F48034A8
:10272000C9F487EB92E00895803689F0803791F400
:102730008DE992E0089582ED92E0089589EC92E0AF
:10274000089580EC92E008958FEA92E0089586EA79
:1027500092E0089585E992E008958BED92E0089566
:10276000982F81FF02C080E801C080E093FD846063
:1027700095FD806494FD82600895982F881F8827B6
:10278000881F880F92FD886096FD806291FD8061B0
:10279000089515BC14BCA89A5E985B9A88B18F7C8A
:1027A00088B910927A00E4E6F0E08081816080834D
:1027B00088B1867F88B984B1877D84B985B1877DEA
:1027C00085B90895F8948091390180FD0DC08091FC
:1027D000780186FD09C0809178018064809378013A
:1027E00083E084BD5E985B9A78940895F894809114
:1027F000390180FD0CC08091780186FF08C080916E
:1028000078018F7B8093780183E884BD5B9878940E
:1028100008951F93CF93DF93F894C8E7D1E0188110
:102820000E94F6138CE38FA77894812F8074DF9138
:10283000CF911F910895F8948091A701882339F0D2
:102840008091A70181508093A7017894089578948E
:1028500080919D0190919E0120919C01880F892F6C
:10286000881F990B9195820F911D8130924010F035
:102870000C94E2134091460160914501809144011E
:102880000E941B0721E030E0A90102C0440F551F40
:102890008A95E2F7CA012091A501242349F7909176
:1028A000A601892309F051C08091A10187FD4DC087
:1028B0009091A1018091A301981760F09091A101DE
:1028C0008091A301981319C09091A2018091A40155
:1028D000891798F09091A10180914701981708F10C
:1028E0009091A1018091470198132FC09091A2016E
:1028F00080914801981748F514C09091A1018091EA
:102900004701981708F4B4CF9091A1018091470135
:10291000981307C09091A20180914801981708F47C
:10292000A7CF909147018091A301981708F4A0CFF9
:10293000909147018091A301981307C0909148019D
:102940008091A401981708F493CF80919D019091F4
:102950009E0120919C01880F892F881F990B9195CA
:10296000820F911D8115924020F080919C018F3F34
:1029700011F40C94F6130895FF920F931F93CF93C5
:10298000DF9300D01F92CDB7DEB7809104018F5F37
:10299000893018F48093040102C010920401198256
:1029A0001A821B82F09004010F2D10E0F801E85804
:1029B000FE4F858590917A019330D1F09430D1F11A
:1029C000923009F073C090917B01923079F028F435
:1029D000913009F06BC084811BC0933029F0943092
:1029E00009F064C0858523C085851DC0848114C01D
:1029F00090917B019230B1F028F4913009F056C0EB
:102A0000848115C0933039F0943009F04FC085852A
:102A10000E94BD134BC08585881F8827881F82951B
:102A2000807F44C0848184FF3EC080E83FC00E9414
:102A3000B0133CC090917B019231C0F580917B0135
:102A400086952F2D281B39E0320F393061F1832F05
:102A500090E0FC01393020F4E858FE4F858503C032
:102A6000E159FE4F848190917B0190FF1FC098E057
:102A7000920F292F30E0F901993020F4E858FE4FE9
:102A8000258503C0E159FE4F248126FF02C094E052
:102A900001C090E023FD986082FD906483FF05C033
:102AA000892F806203C080E001C0892F90917A0154
:102AB000992319F0F11001C080E090917801AE01E6
:102AC0004F5F5F4F96FD3DC0F801E95AFA4FE49120
:102AD0009E2F969596959695DA01A90FB11DE770F0
:102AE00021E030E001C0220FEA95EAF79C91292B02
:102AF0002C9320E030E090E001E010E0BC01022ED9
:102B000002C0759567950A94E2F760FF14C0F90159
:102B1000E15BFA4FE4916E2F669566956695DA0152
:102B2000A60FB11DE770B80101C0660FEA95EAF77C
:102B30007C91672B6C932F5F3F4F28303105F1F666
:102B4000439AFE01349688E09291292F282311F0B0
:102B50002B9A01C02B982D9A2D988695B1F780E875
:102B60004E175F0789F7409A40988091780186FF59
:102B70004398E0910401F0E0E858FE4F80A92091CD
:102B8000B10190E002C0959587952A95E2F78F5F95
:102B90000F900F900F90DF91CF911F910F91FF90A9
:102BA0000895609178016F708EE390E00C94B736D1
:102BB0001F93CF93DF93C8E7D1E08881807F88831C
:102BC00018818EE390E00E94A936812B8883DF91E3
:102BD000CF911F910895609192018DE390E00C9444
:102BE000B73627E030E088E090E041E05091900176
:102BF0005423B1F06091930170919401FC01E85865
:102C0000FE4F64836091930170919401F901E8583B
:102C1000FE4F548170FF02C0516001C05E7F54833B
:102C2000509191015423B1F06091930170919401FE
:102C3000FC01E858FE4F6587609193017091940103
:102C4000F901E858FE4F558570FF02C0516001C080
:102C50005E7F5587440F019721503109009731F667
:102C60000895F8948DE390E00E94A9368093920134
:102C7000809192018A3010F0109292011092950189
:102C800010928F0110928E0178940C94F115CF93CD
:102C90003FB7F894E0919201F0E0EE0FFF1FE7518B
:102CA000FB4F8591949120919501FC01E20FF11D5C
:102CB000E20FF11D4591549150939401409393017B
:102CC0004091930150919401452B41F03FBFCFB704
:102CD00078940E94F115CFBFCF910895109295017D
:102CE00020919501FC01E20FF11DE20FF11D85918C
:102CF00094919093940180939301E8CFF8948091FC
:102D000092018F5F809392018A3010F010929201AD
:102D10001092950110928F0110928E010E94471619
:102D200078940895CF93CFB7F894E8E7F1E0858DD4
:102D30008F5F858F0E944716CFBFCF9108959FB7B1
:102D4000F8948091420183FF09C080914201877FFE
:102D50008093420180914201846010C080914201C1
:102D600082FF04C080914201877F03C080914201AD
:102D7000886080934201809142018B7F8093420161
:102D8000809178018F77809378011092970110924B
:102D900096019FBF089587E091E020919801292333
:102DA00071F020917801E82FF0E0E858FE4F27FFFE
:102DB00003C024812E7F02C02481216024832091BE
:102DC0009901292371F020917801E82FF0E0E8586B
:102DD000FE4F27FF03C025852E7F02C02585216079
:102DE0002587990F8150C8F60895E82FF0E0E8583C
:102DF000FE4F1482089580E090E0FC01E858FE4FF9
:102E00001482019689309105C1F7109298011092B1
:102E100090010895CF93DF93C8E7D1E06AA18CE3D6
:102E200090E00E94B7366BA18BE390E0DF91CF91E9
:102E30000C94B736CF93DF93C0E0D0E0FE01E858A2
:102E4000FE4F60A9CE018F5C9F4F0E94B73621963E
:102E5000C930D10599F7DF91CF91089580E090E0D6
:102E600020E030E0FC01E858FE4F40A9240F311D5E
:102E7000019689309105B1F71092B1018091B101AD
:102E8000A90102C0569547958A95E2F7CA0181309B
:102E9000914030F08091B1018F5F8093B101EECF0E
:102EA0000895CF93DF93C0E0D0E0CE018F5C9F4FB9
:102EB0000E94A936FE01E858FE4F80AB2196C9302A
:102EC000D10599F7DF91CF910C942E178AE390E00A
:102ED0000E94A93680939C01089560919C018AE329
:102EE00090E00C94B736CF93DF9380E390E00E949C
:102EF000A936C8E7D1E089A78FE290E00E94A93601
:102F00008AA78EE290E00E94A9368BA78DE290E01E
:102F10000E94A9368CA7DF91CF910895CF93DF93BC
:102F2000C8E7D1E069A580E390E00E94B7366AA5C2
:102F30008FE290E00E94B7366BA58EE290E00E948F
:102F4000B7366CA58DE290E0DF91CF910C94B73647
:102F50008CE290E00E94A9368093A50108956091CB
:102F6000A5018CE290E00C94B7368BE290E00E94D1
:102F7000A9368093A6010895CF93DF93E4E6F0E0AD
:102F800080818F7D8083539A5B9A569A5E9887B131
:102F9000896087B988B1867F88B984B1877D84B913
:102FA0003D9A4598EEE7F0E0808180638083C8E732
:102FB000D1E081E089838FEF9FEF9EA38DA30E94D4
:102FC00066170E9451170E9473170E94A8170E944B
:102FD000B5171A820E94D815DF91CF910C94311643
:102FE0006091A6018BE290E00C94B7362BE0820250
:102FF000C001112423E0959587952A95E1F7449621
:103000008431910534F0833891052CF082E890E00A
:1030100002C084E190E087BD089580919B0160919A
:103020009D0170919E0120919B0140919A0138E091
:103030008302C0011124672F7727022E000C330B67
:10304000241B310947FD3395629FA001639F500DFA
:10305000729F500D11249A0145E0369527954A95A7
:10306000E1F7821B930B20919F013091A001821701
:1030700093070CF4019620919F013091A00128172D
:1030800039070CF401979093A00180939F0181353B
:1030900091052CF497FF05C080E090E002C080E528
:1030A00090E00C94F617CF93DF938CE390E00E94AE
:1030B000A936C8E7D1E08AA38BE390E00E94A93645
:1030C0008BA3DF91CF910C940D1888B1806388B9E0
:1030D000E4E6F0E080818E7F808384E080937C0052
:1030E00086EC80937A0084B1886284B983E884BDD9
:1030F00081E085BD80936E000E9453185B988CE33D
:103100008093A7010C94F613F89480913401909168
:10311000350120917B01211108C078948091030131
:103120008150B9F18093030162C0009711F00197BB
:103130002BC020917B01215020937B01222371F031
:1031400020917A01223000F1243028F02430E1F47B
:1031500084E190E019C082E390E016C020E030E006
:10316000F901E858FE4F448145872F5F3F4F2930D2
:103170003105B1F720919801209399012091900198
:103180002093910110927A0190933501809334013C
:10319000C4CF80E18093030120919D0130919E0175
:1031A00080919D0190919E0156E0369527955A9504
:1031B000E1F7821B930B90939E0180939D012091D8
:1031C00078003091790080919D0190919E01820F4D
:1031D000931F90939E0180939D0180917A0080645B
:1031E00080937A008091780184FF0E940D1880916D
:1031F000780184FF25C080910201815019F08093ED
:1032000002011EC086E080930201909178018091B6
:10321000330195FF08C0811104C0809178018F7D32
:1032200007C0815009C0803531F4809178018062F7
:103230008093780105C08F5F809333010E94F61759
:10324000F89480917A01811120C020918E013091F3
:103250008F012F5F3F4F30938F0120938E0180911C
:1032600093019091940188279E7F43E096958795DE
:103270004A95E1F72817390740F010928F01109214
:103280008E0178940E949216F8947894F894809124
:103290007A0181112FC08091420183FD05C0809188
:1032A000420182FD1BC026C080919601909197013A
:1032B00001969093970180939601811593407CF33A
:1032C0008091780180588093780110929701109234
:1032D000960178940E94CB16F8940CC080919601C8
:1032E0009091970101969093970180939601803871
:1032F000914034F778940895CF93C62F5091980158
:10330000282F30E067E070E0621B730B81E090E0F3
:10331000FC0102C0EE0FFF1F6A95E2F74E2F4095A9
:103320004523409398014091900168E070E0621B52
:10333000730B01C0880F6A95EAF780958423809308
:1033400090018C2F6AE00E94F635E92FF0E0E05AF8
:10335000FA4FE491D901A858BE4F1496EC931497F4
:10336000C93051F48091780182FF06C014968C9187
:103370001497806114968C93CF910895CF93DF9327
:10338000E62F40919801A82FB0E067E070E06A1B3B
:103390007B0B21E030E0E90102C0CC0FDD1F6A9514
:1033A000E2F79C2F9095942390939801909190012F
:1033B00048E050E04A1B5B0B01C0220F4A95EAF738
:1033C000EA33D9F4292B2093900120919301309175
:1033D0009401FD01E858FE4F2483882309F454C06A
:1033E000809193019091940190FF4EC0A958BE4FD7
:1033F00014968C911497816045C0209529232093C1
:1034000090019FE99E0F9A3178F480917801A85835
:10341000BE4F0E2E000CFF0B83FF03C0E75FFA4F79
:1034200015C0ED5DFA4F12C09FEB9E0F9A3190F4DC
:1034300080917801A858BE4F0E2E000CFF0B83FF21
:1034400003C0E75DFA4F02C0ED5BFA4FE4911496BA
:10345000EC931AC060ED6E0F6A3020F4DF91CF91CB
:103460000C947C19A858BE4FED3239F0EF3239F088
:10347000E03239F414961C9207C082E003C08AE45B
:1034800001C082E914968C93DF91CF9108950F9338
:103490001F93CF93DF93182FFB01811103C010926C
:1034A0007C0181E06491EF01611103C0112361F09F
:1034B00014C021968930D0F701E0080F0E94BE1990
:1034C000FE016491802FF0CF893038F4E82FF0E0CE
:1034D000E858FE4F14828F5FF7CFDF91CF911F9195
:1034E0000F910895CF93DF93282FC62FD1E0D80FE7
:1034F00067FF06C06DE20E94BE196C2F61950AC07D
:10350000862F6AE00E940236C92F682F822F0E9400
:103510007C196C2F8D2FDF91CF910C947C19CF9358
:10352000DF93D82FC62F8091780181FF05C08D2FA2
:10353000DF91CF910C94721A67FF06C06DE28D2F58
:103540000E94BE19C19510C06A3034F4ED2FF0E02E
:10355000E858FE4F148208C0862F6AE00E940236A7
:10356000682F8D2F0E947C198C2F6AE00E940236F2
:10357000692F81E08D0FDF91CF910C947C19CF934F
:10358000DF93282FC62F8091780181FF05C0822FFD
:10359000DF91CF910C94721AD1E0D20F67FF06C071
:1035A0006DE2822F0E94BE19C19510C06A3034F4BA
:1035B000ED2FF0E0E858FE4F148209C0862F6AE034
:1035C0000E940236682F822F0E947C192D2F8C2F8B
:1035D0006AE00E940236692F822FDF91CF910C940E
:1035E0007C19681770F0893060F4E82FF0E0E85833
:1035F000FE4F94819C7F19F09481916094838F5F3A
:10360000F0CF0895E82FF0E0E858FE4F848166235C
:1036100011F0816001C08E7F8483089590E066235D
:10362000E1F06091980147E050E0481B590B21E020
:1036300030E001C0220F4A95EAF7262B209398012B
:1036400020917801FC01E858FE4F848127FF02C0D9
:103650008E7F01C08160848308952091980147E0A6
:1036600050E0481B590B30E0042E02C035952795D9
:103670000A94E2F720FF06C0FC01E858FE4F84815F
:103680008E7F84832091980181E090E001C0880FB3
:103690004A95EAF780958223809398010895E82F50
:1036A000F0E0E858FE4F8481662311F0826001C08B
:1036B0008D7F848308956A3050F0643150F06E310C
:1036C00050F0683250F0623350F094E009C090E856
:1036D00007C090E405C090E203C090E101C098E00B
:1036E00060FD9260E82FF0E0E858FE4F9483089563
:1036F0009091780190FF81E090917B0191112BC016
:103700002FB7F89480937A0180917A01843038F44D
:10371000823048F48130F1F480E090E008C08430D9
:10372000C9F482E101C085E080937B0113C0FC01F4
:10373000E858FE4F34813587019689309105B9F7F5
:1037400080919801809399018091900180939101DB
:1037500010927A012FBF08955D9828985C98559A29
:10376000209A549A0895E2EBF1E0118210820C94B1
:10377000AC1B5598209854985D9A289A5C9A0895A5
:1037800089B185FB992790F981E089274C9B84605A
:10379000189B82609091B3018917E1F02091B201EA
:1037A0002F7030E0482F50E02417350799F490919E
:1037B00038019F5F909338019E31C0F08093B30130
:1037C0008091B2018F708093B201109237011092F4
:1037D00036010CC09091B201907F9093B20190910C
:1037E000B201892B8093B201109238018091B3010C
:1037F000882311F1809136019091370101969093C1
:103800003701809336012091B20125FF0DC0843627
:10381000910590F08091B2018F7E8093B201109259
:103820003701109236010895883E934028F0809128
:10383000B20180628093B20108958091B20184FD4B
:103840000EC08091B301882359F08091B20180614C
:103850008093B2010E94D8118091B301089580E055
:103860000895AFE3B1E018968C911897E4EBF1E07E
:10387000848319968C91199785831A968C918683E7
:103880000895AFE3B1E015968C911597E4EBF1E064
:10389000848316968C911697858317968C918683D0
:1038A000089580915C0190915D016CE370E00E944D
:1038B00010366093B801089580919A018093B90100
:1038C00080919B018093BA0190919A0180919B0114
:1038D000981303C080919A0101C08BE08093B801D6
:1038E00008951092B801089580919C011092B8013A
:1038F000882339F09091B8019F5F9093B801869525
:10390000F7CF08958091A10180788093B801089540
:103910008091A5018093B80108958091A6018093BC
:10392000B8010895809178018093B801089580913D
:103930003F018093B8010895ABEBB1E01B968C91E9
:103940001B97E4EBF1E084831C968C9185830895AA
:10395000809142018093B801089580914001809345
:10396000B801089590916A0180916B01981721F038
:103970008BE08093B8010BC080916A018093B801FD
:1039800080916A0160E00E94A7100E943F1280911E
:103990006A018093B90180916B018093BA01089507
:1039A000EBE5F1E02785808990E0820F911D9595E8
:1039B000879560E00E94A7100C943F1280915B01F4
:1039C00080738093B8018091B801882331F0809191
:1039D00078018061809378010895809178018F7ECD
:1039E000809378010C940D181092B801089580917D
:1039F00043018230C1F56091B20084E6689FB00156
:103A00001124660F672F661F770B719587E00E9460
:103A1000721A8091420186FF08C08091420185FFA1
:103A200008C060913F0162700BC08091420185FF28
:103A30000AC08091420184FF06C06091BB0160749E
:103A400088E00E94021B8091B40180FD0CC080912F
:103A50007A01811108C08091840180938D01809149
:103A6000830180938C010895CF93C09147010E94F8
:103A7000FB1680914301833011F482E001C081E0A4
:103A80009091420197FF0BC0CD3010F0CC5003C095
:103A9000C11101C0CCE06C2F0E948F1A03C06C2FA3
:103AA0000E94721AE09143018E2F90E088309105B8
:103AB00008F079C0FC01EC5CFF4F0C9479366AE3A6
:103AC00083E00E94BE196091480184E00E94721A4E
:103AD0006AE386E00E94BE196091490126C06AE34C
:103AE00083E00E94BE196091480184E00E94721A2E
:103AF0006091490187E00E945B1B55C061E082E054
:103B00000E940E1B6091480183E00E94721A61E0DE
:103B100084E00E940E1B6091490185E00E94721AA8
:103B200061E086E00E940E1B60E087E00E94721A4E
:103B30003AC06AE384E00E94BE196091480185E0C2
:103B4000F5CF6DE688E00E94BE196AE383E00E942B
:103B5000BE196091480184E00E94721A1AC06DE695
:103B600088E00E94BE1961E082E00E940E1B609115
:103B7000480183E00E94721A61E084E00E940E1BFB
:103B80006091490185E00E94721A61E086E00E941E
:103B90000E1B809147018C3010F060E701C061E698
:103BA00087E00E94BE198091420186FF11C080917A
:103BB000470161E08C3008F460E080E00E94021B65
:103BC0008091420185FF0EC060913F01627011C07B
:103BD0008091420185FF0FC060913F01627080E0DB
:103BE0000E94021B8091420184FF0FC06091BB01C3
:103BF000607488E008C08091420184FF06C0609133
:103C0000BB01607480E00E94021B80915B0180FF19
:103C10000DC080915B01867059F08091490180FD53
:103C200007C0609178016295617003C060E001C0D7
:103C300061E080E00E944F1B0E94F115CF910C942F
:103C4000F71C1F93CF93DF93C82F162FD42F80E03C
:103C50000E94F5168091420187FF13C061E0CC30CD
:103C600008F460E080E00E94021BCC2321F0CD30FC
:103C700018F0CC5001C0CCE06C2F81E00E948F1A6C
:103C800004C06C2F81E00E94721A83E00E94F51636
:103C9000612F84E00E94721A86E00E94F5166D2F53
:103CA00087E0DF91CF911F910C94721A1F93CF93ED
:103CB000DF93C82F162F8091420187FF2AC0CD3095
:103CC00018F0D4EFDC0F05C0CC2311F0DC2F01C0BD
:103CD000DCE080E00E94F5166D2F81E00E948F1AD3
:103CE00083E00E94F516612F84E00E94721A86E03C
:103CF0000E94F516CC3010F461E601C060E787E061
:103D00000E94BE196DE688E0DF91CF911F910C945F
:103D1000BE1980E00E94F51681E00E94F5166C2F16
:103D200082E00E94721A84E00E94F516612F85E0FD
:103D30000E94721A87E00E94F51688E0DF91CF9109
:103D40001F910C94F516CF93C091B80180E00E94AA
:103D5000F516C7FF06C06DE281E00E94BE19C1954D
:103D600003C081E00E94F5166C2F82E00E948F1A3A
:103D700068E684E00E94BE1985E00E94F516609115
:103D8000B90186E00E948F1A6DE688E0CF910C940D
:103D9000BE19CF93C62FBC0180E00E94471A6C2F3A
:103DA00087E00E948F1A68E087E0CF910C94F11AA7
:103DB0000F931F93CF938B01BC0180E00E94471AA1
:103DC000C8010E94A036C9E0C81BB8018C2F0E9410
:103DD000471A68E08C2FCF911F910F910C94F11A24
:103DE00080E00E94F51680914001E82FEF708E2F41
:103DF00090E08730910508F090C0FC01E45CFF4F33
:103E00000C94793664E181E00E94721A6091440159
:103E100083E00E94721A61E084E00E94021B6091BC
:103E2000450185E00E948F1A61E086E00E94021B36
:103E30006091460187E00C948F1A6091460181E001
:103E40000E948F1A61E082E00E94021B609145018E
:103E50000BC06091450181E00E948F1A61E082E011
:103E60000E94021B6091460183E00E948F1A61E06C
:103E700084E00E94021B64E185E00E94721A609156
:103E8000440187E00C94721A6091460181E00E941F
:103E90008F1A6DE283E00E94BE19609145010BC04C
:103EA0006091450181E00E948F1A6DE283E00E94DB
:103EB000BE196091460184E00E948F1A6DE286E08F
:103EC0000E94BE19DCCF81E00E94F5166091460188
:103ED00082E00E948F1A84E00E94F51680914501CD
:103EE0000E946307BC0185E00E94471A13C081E06D
:103EF0000E94F516809145010E946307BC0182E093
:103F00000E94471A85E00E94F5166091460186E0FE
:103F10000E94BF1A88E00C94F51608950F931F9322
:103F2000CF93DF93082F6EE975E080E00E94471A77
:103F3000C0E0D0E010E0C8010C2E02C09595879536
:103F40000A94E2F780FD04C08C2F8F5F0E94F51663
:103F50002196C730D10579F7DF91CF911F910F914D
:103F600008951F93CF93DF93C82FD62F8091B4016C
:103F700081608093B4011092B7011092B601C09392
:103F8000B5010E94FB16E091B5018E2F90E08435BB
:103F9000910508F028C3FC01ED5BFF4F0C947936C6
:103FA0004091460160914501809144010E941B07A8
:103FB0000E945507BC0119C364E183E00E94721A94
:103FC0006091440185E00E94721A12C361E278E0B8
:103FD0000CC36BE178E051C0E091B8010E2E000CEB
:103FE000FF0BE55AFE4F838587FF13C0E091B801B0
:103FF0000E2E000CFF0BE55AFE4F6085E091B801D4
:104000000E2E000CFF0BE55AFE4F85810E94561EB6
:10401000EFC262E178E0E9C2E091B8010E2E000C37
:10402000FF0BE55AFE4F838590E08F778134910531
:1040300059F08F37910529F0CE9749F460E078E088
:10404000D4C269E078E0D1C267EF77E0CEC2E091F8
:10405000B8010E2E000CFF0BE55AFE4F83850E941F
:104060008E1FC6C26EEE77E0C0C265EE77E0BDC2BD
:104070006CED77E0BAC266ED77E080E00E94471A07
:104080006091B8016F5F87E00E94BF1AB1C2E091F2
:10409000B8010E2E000CFF0BE55AFE4F838587FDFD
:1040A00003C06FEC77E002C063ED77E08AEC97E045
:1040B00097C2E091B8010E2E000CFF0BE55AFE4F9F
:1040C0006085E091B8010E2E000CFF0BE55AFE4F03
:1040D00085810E94561E8091420187FF07C23DC024
:1040E000E091B8010E2E000CFF0BE55AFE4F6085E3
:1040F000E091B8010E2E000CFF0BE55AFE4F8581B2
:104100000E94561E8091420187FF79C065E084E0DD
:104110000E94F11A6DC28091B901813C51F08F3F2C
:1041200029F08E3B49F468EB77E03DC161EC77E024
:104130003AC16FEA77E037C166EA77E034C180912F
:10414000B9017AC16DE977E050C24091BA0160913E
:10415000B9018091B8010E94211E62E028C14091FE
:10416000BA016091B9018091B8010E94211ECECFA1
:104170004091BA016091B9018091B8010E94211E5D
:1041800068E087E0C5CF64E977E02FC264E181E0B1
:104190000E94721A6091B80183E00E94721A85E051
:1041A0000E94F5168091B9010E946307BC0186E068
:1041B0000E94471A64E083E0ABCF64E181E00E9493
:1041C000721A6091B80183E00E94BF1A85E00E94D4
:1041D000F5168091B9010E946307BC0186E00E9438
:1041E000471A52C08091B9010E946307BC0180E068
:1041F0000E94471A6091BA0185E00E948F1A66E01A
:1042000085E086CF6BE877E0F0C163E877E040C0F7
:104210000E947F13BC01C7C06AE777E039C0809174
:10422000B8018B3029F461E777E086E797E0D8C1E1
:104230006091B80186E797E0CCC16091B9018BE647
:1042400097E00E94C91E61E081E00E94021BD0C17C
:104250006091BA0185E697E0F4CF6091B80180E6FD
:1042600097E0B7C167E577E013C08091B801882374
:1042700029F06091B80182E597E0ABC16EE477E088
:1042800082E597E00E94D81E68E036C165E477E0D9
:1042900080E00E94471AD7CF8091B801803239F070
:1042A000803359F0803131F46EE377E008C06AE37F
:1042B00077E005C066E377E002C062E477E081E37F
:1042C00097E08EC168E277E090C16FE177E08DC141
:1042D0008091B8018B3039F40E9453186AE177E07D
:1042E00086E197E07DC18091B80180939B01809326
:1042F0009A010E940D186091B80182E197E069C1AE
:104300008091B80187FF03C00E94531808C08091B4
:10431000B80180939B0180939A010E940D186091CF
:10432000B8018CE097E08DCF8091B80180939B011C
:1043300080939A010E940D186091B80186E097E081
:1043400080CF6DEF76E051C161E080E00E94021BFA
:1043500011E068E0812F0E947C191F5F1930C9F7B6
:104360008091B801882341F08091B80161E00E94FA
:10437000021B60E080E003C08091B80161E00E9410
:104380004F1B36C164EF76E030C16BEE76E02DC195
:104390008091B801882329F06091B80185EE96E0FC
:1043A00018C16CED76E080E00E94471A68E081E079
:1043B000AFCE63ED76E019C18091B801882319F082
:1043C0006AEC76E0F0CF61EC76E0EDCF6091A2018F
:1043D0008091A1017ECE6091A2018091A10190CE39
:1043E0006091A4018091A30174CE6091A401809199
:1043F000A30186CE68EB76E0F8C06FEA76E0F5C000
:104400008091B8018E3369F02CF4811110C066EAF6
:1044100076E0C9CF813441F08F3749F46DE976E019
:10442000C2CF64E976E0BFCF6BE876E0BCCF62E84C
:1044300076E0B9CF8091B8010E948E1F8091BA01B9
:1044400061E08F5F02CF69E776E0CFC08091B8016D
:1044500080FD03C062E776E002C066E776E08DE6A5
:1044600096E0BEC064E676E0C0C06CE576E0BDC014
:104470008091B801082E000C990B807F9927009736
:1044800051F08034910571F468E086E00E94F11AE1
:1044900068E576E00CC08091B80181FD06C061E559
:1044A00076E005C06EE476E002C065E576E08AE479
:1044B00096E096C08091B801082E000C990B807F81
:1044C00099278032910541F0C09719F462E476E0B3
:1044D00005C06EE376E002C066E476E089E396E02C
:1044E0007FC060E376E081C00E94A31E63E082E0AB
:1044F0000FCE0E94A31E67E086E00ACE67E276E058
:1045000074C08091B80187FD02C068E101C06CE011
:1045100081E296E05EC00E94341D6AC068E176E0E8
:1045200064C06FE076E080E00E94471A61E087E0B7
:104530000E940E1B5DC08091420185FF03C066E0B2
:1045400076E002C061E076E08BE096E049C08091C1
:10455000420184FF03C068EF75E002C063EF75E0BD
:104560008DEF95E03DC06AEE75E03FC08091B801E7
:1045700087FD03C063EE75E002C067EE75E08EED67
:1045800095E02EC00E94F01E33C08091400186FD50
:1045900003C067ED75E002C06BED75E082ED95E05C
:1045A0001FC080914101882329F0609141018DEC69
:1045B00095E00FC069EC75E08DEC95E011C060EC02
:1045C00075E013C060E08BEB95E003C069E086EB1B
:1045D00095E00E94C91E0CC063EB75E08EEA95E081
:1045E0000E94D81E05C066EA75E080E00E94471A66
:1045F0001092B7011092B601C093B5018D2F0E94A1
:10460000781B8091B4018E7F8093B401DF91CF91AC
:104610001F91089561E080E00C94B11F8091B50175
:10462000882321F0863409F467C0089580913F0102
:1046300080FF28C08091490180FF24C080913A0109
:1046400083FF03C060E678E017C080913A0181FFE4
:1046500003C067E578E010C080913A0180FF03C095
:104660006EE478E009C080913A0182FF03C065E4FE
:1046700078E002C06CE378E080E00E94471A81E0B5
:104680000C94781B8091390182FF07C08091490109
:1046900080FF03C063E378E0EFCF8091C8018823F7
:1046A00059F08091C901811107C08091490180FFB3
:1046B00003C06AE278E0E0CF809141018823C1F035
:1046C00080914901609141010E94F635913081F459
:1046D000F89480913F01846080933F0178948091A9
:1046E000400164E087FF02C081E004C082E002C0B4
:1046F00061E080E00C94B11FF8948091B601909134
:10470000B7018F3710F40E94341D789408950C94EB
:104710000E238091B5018A3020F463E084E00C948C
:10472000B11F08958091B5018A3020F463E088E0DC
:104730000C94B11F08958091B5018A3020F463E094
:1047400089E00C94B11F08950F93CF93962F0230F8
:1047500031F0043061F0013081F463E00AC0F90106
:10476000C42F309709F0099562E08C2F02C064E0F5
:10477000892FCF910F910C94B11FCF910F91089574
:10478000EF920F9380917A0181110C940B320E9469
:104790001D1C082F882359F00E940914811107C09D
:1047A0000E949E0F811103C00E945E06811100E0ED
:1047B000E091B5018E2F90E08435910510F00C94B6
:1047C000F331FC01E956FF4F0C947936023029F0A1
:1047D000043019F0013049F471C08091400163E068
:1047E00087FF27C081E00C940732F89480913F0145
:1047F00080FD04C08091390182FF04C0809149018D
:1048000080FD0DC08091C801882339F08091C901D5
:10481000811103C08091490180FF0E94F71C7894A8
:104820000C940B32013041F480913F0182FD3FC076
:1048300064E082E00C9407320111FACF8091B60156
:104840009091B70101969093B7018093B601833E92
:10485000944070F70C940B32013061F480913F0169
:1048600082FD25C08091400186FF1AC064E083E08C
:104870000C9407320111F6CF8091B6019091B701E7
:1048800001969093B7018093B601833E944050F710
:104890000C940B320130B1F480913F0182FD07C0CE
:1048A00080913F0182FD1EC062E00C940632F894B4
:1048B00080913F018B7F80933F01789462E08AE092
:1048C0000C9407320111ECCF8091B6019091B701A1
:1048D00001969093B7018093B601833E944000F710
:1048E0000C940B32F89480913F018B7F80933F01B1
:1048F000789464E00C940632002319F01092B80109
:104900004AC08091B6019091B70101969093B7018A
:104910008093B601833E944088F70C940B320023B9
:1049200021F064E086E00C9407328091B60190910A
:10493000B70101969093B7018093B601833E9440EE
:1049400080F70C940B32002371F0E091B8010E2E29
:10495000000CFF0BE55AFE4F838587FF14C064E00F
:1049600087E00C9407328091B6019091B7010196CF
:104970009093B7018093B601833E944030F70C9436
:104980000B32002361F08091B8018F5F8093B801F2
:1049900083300CF089CF64E085E00C94073280917D
:1049A000B6019091B70101969093B7018093B6013B
:1049B000833E944040F70C940B32011175CF8091E7
:1049C000B6019091B70101969093B7018093B6011B
:1049D000833E944008F068CF0C940B32011164CFF1
:1049E0008091B6019091B70101969093B7018093A1
:1049F000B6018338944108F057CF0C940B32809164
:104A0000BB0186FD02C061E101C069E1E12C24EF38
:104A10003CE14BE080E00E94A4230C94F33102308F
:104A200061F0043081F0013011F00C94F33163E057
:104A300080E00E94B11F0C94F33162E08CE00E9490
:104A4000B11F0C94F3318091B8018F5F8093B8014E
:104A50008091B80163E00E9402369093B80164E04F
:104A60008BE00E94B11F0C94F331023079F00430D6
:104A700039F1013009F041C08091B8010E94B30EB4
:104A800063E080E00E94B11F0C94F331E091B80123
:104A90000E2E000CFF0BE55AFE4F838587FF06C0E4
:104AA00062E08DE00E94B11F0C94F3318091B80157
:104AB0000E94DC0E62E080E00E94B11F0C94F33192
:104AC000E091B8010E2E000CFF0BE55AFE4F8385D6
:104AD000E091B8010E2E000CFF0BE55AFE4F87FF48
:104AE00003C083858F7702C083858068838761E0F8
:104AF0008CE00E94B11F0C94F3318091B60190912B
:104B0000B7018033954711F00C94F3318091B801CF
:104B10000E94B30E0C94F331023071F0043091F026
:104B2000013061F58091B8010E94B30E63E080E02E
:104B30000E94B11F0C94F33161E08EE00E94B11F1E
:104B40000C94F331E091B8010E2E000CFF0BE55AE6
:104B5000FE4F85818F5F8583E091B8010E2E000C9A
:104B6000FF0BE55AFE4F858168E10E94F63595837B
:104B700061E08DE00E94B11F0C94F3318091B60189
:104B80009091B7018033954711F00C94F3318091E7
:104B9000B8010E94B30E0C94F331023079F0043066
:104BA00049F1013009F042C08091B8010E94B30E72
:104BB00063E080E00E94B11F0C94F331E091B801F2
:104BC0000E2E000CFF0BE55AFE4F8385803811F442
:104BD0008FEF08C0E091B8010E2E000CFF0BE55AD4
:104BE000FE4F83858093B90162E08FE00E94B11F80
:104BF0000C94F331E091B8010E2E000CFF0BE55A36
:104C0000FE4F80858F5F8087E091B8010E2E000CEB
:104C1000FF0BE55AFE4F80856CE30E94F6359087C6
:104C200061E08EE00E94B11F0C94F3318091B601D7
:104C30009091B7018033954711F00C94F331809136
:104C4000B8010E94B30E0C94F331023081F00430AD
:104C500009F449C0013009F05DC08091B8010E949B
:104C6000B30E63E080E00E94B11F0C94F331809199
:104C7000B9018E3B91F068F4803819F58FEF80937D
:104C8000B9011092BA0162E080E10E94B11F0C9458
:104C9000F331813C11F08F3FA1F4E091B8010E2E69
:104CA000000CFF0B8091B901E55AFE4F838780917C
:104CB000B8010E94DC0E62E080E00E94B11F0C94FB
:104CC000F331E091B8010E2E000CFF0BE55AFE4FB8
:104CD00083858093B9011092BA0162E080E10E945D
:104CE000B11F0C94F3318091B901813C41F08F3FA9
:104CF00021F08E3B31F481EC05C08EEB03C080E8DF
:104D000001C08FEF8093B90161E08FE00E94B11F75
:104D10000C94F3318091B6019091B701803395479F
:104D200011F00C94F3318091B8010E94B30E0C94F1
:104D3000F331023079F0043081F1013009F040C0E4
:104D40008091B8010E94B30E63E080E00E94B11F21
:104D50000C94F3318091BA0186305CF48091BA01F1
:104D60008F5F8093BA0161E080E10E94B11F0C94D3
:104D7000F331E091B8010E2E000CFF0B8091B901C8
:104D8000E55AFE4F83878091B8010E94DC0E62E0F5
:104D900080E00E94B11F0C94F3313091BA01209150
:104DA000B90181E090E001C0880F3A95EAF78227C7
:104DB0008093B90161E080E10E94B11F0C94F3314E
:104DC0008091B6019091B7018033954711F00C9412
:104DD000F3318091B8010E94B30E0C94F331E12CB1
:104DE00021E33CE142E165E180E00E94A4230C94D0
:104DF000F331023061F0043081F0013011F00C9495
:104E0000F33163E080E00E94B11F0C94F33161E064
:104E100083E10E94B11F0C94F3318091B8018F5F40
:104E20008093B8018091B80168E10E9402369093A6
:104E3000B80161E082E10E94B11F0C94F3310230AD
:104E400061F0043081F0013011F00C94F33163E033
:104E500080E00E94B11F0C94F33161E084E10E9474
:104E6000B11F0C94F3318091B9018F5F8093B90128
:104E70008091B9016CE30E9402369093B90161E020
:104E800083E10E94B11F0C94F331023061F00430D1
:104E9000F9F0013011F00C94F33163E080E00E94EE
:104EA000B11F0C94F331F8944091BA016091B901AB
:104EB0008091B8010E94EF0B80E00E94CE087894A8
:104EC0000E948E0662E080E00E94B11F0C94F331D4
:104ED0008091BA018F5F8093BA018091BA016CE32F
:104EE0000E9402369093BA0161E084E10E94B11FF2
:104EF0000C94F331E12C21E43CE146E169E180E0EE
:104F00000E94A4230C94F331023061F0043081F04C
:104F1000013011F00C94F33163E080E00E94B11F86
:104F20000C94F33161E087E10E94B11F0C94F331DE
:104F30008091B8018F5F8093B80183331CF08AE0C1
:104F40008093B80161E086E10E94B11F0C94F331B7
:104F5000023061F0043081F0013011F00C94F33133
:104F600063E080E00E94B11F0C94F33164E088E1BB
:104F70000E94B11F0C94F3318091B9018F5F80932F
:104F8000B9018091B9018D301CF081E08093B901A5
:104F900061E087E10E94B11F0C94F331023061F0AF
:104FA0000430F9F0013011F00C94F33163E080E04B
:104FB0000E94B11F0C94F331F8944091BA016091B2
:104FC000B9018091B8010E94FE0680E00E94CE08DF
:104FD00078940E94730662E080E00E94B11F0C94F6
:104FE000F3312091BA0101E0020F0093BA01609100
:104FF000B9018091B8010E940907202F000F330BDF
:1050000090E0821793071CF481E08093BA0161E07D
:1050100088E10E94B11F0C94F331E12C20E030E0D4
:105020004AE165E280E00E94A4230C94F331E12C74
:1050300020ED3CE14BE16CE180E00E94A4230C9464
:10504000F331023071F00430B1F00130F1F40E941C
:1050500076130E947E1063E080E00E94B11F0C94E2
:10506000F3310E9441100E94761362E080E00E94BA
:10507000B11F0C94F3310E9494100E943F1261E022
:105080008BE10E94B11F0C94F3318091B601909195
:10509000B7018033954711F00C94F3310E947613D9
:1050A0000E947E100C94F331E12C22EB3CE14DE1A7
:1050B00061E280E00E94A4230C94F331023069F095
:1050C000043099F1013009F050C00E94761363E07A
:1050D00080E00E94B11F0C94F3318091B8018B30B5
:1050E000BCF40E9476138091B80160E00E94A71082
:1050F0008091B80180936A018091B80180936B011F
:105100000E94FE0E62E080E00E94B11F0C94F33119
:105110008091B90160E00E94A7100E943F1262E0F6
:105120008EE10E94B11F0C94F3318091B8018F5F22
:105130008093B8018091B8016CE00E940236909390
:10514000B8018091B8018B3044F48091B80160E0DF
:105150000E94A7100E943F1202C00E94761361E0D5
:105160008DE10E94B11F0C94F3318091B6019091B2
:10517000B7018033954711F00C94F3310E947613F8
:105180000C94F331023061F00430B9F0013069F76A
:105190000E94761363E080E00E94B11F0C94F3310B
:1051A0008091BA0160E00E94A7100E943F1262E065
:1051B0008FE10E94B11F0C94F3318091B9018F5F90
:1051C0008093B9018091B9016AE00E940236909300
:1051D000B9018091B90160E00E94A7100E943F12BE
:1051E00061E08EE10E94B11F0C94F331023069F04E
:1051F000043009F1013009F0B8CF0E94761363E062
:1052000080E00E94B11F0C94F3310E9476138091CC
:10521000B90180936A018091BA0180936B010E9469
:10522000FE0E80916C018093B80162E080E20E94E2
:10523000B11F0C94F3318091BA018F5F8093BA0152
:105240008091BA018B302CF08091B9018F5F8093EF
:10525000BA018091BA0160E00E94A7100E943F123B
:1052600061E08FE10E94B11F0C94F331023061F0D4
:105270000430C1F0013011F00C94F33163E080E0B0
:105280000E94B11F0C94F3318091B80180936C019E
:105290000E94140F0E940E0F62E080E00E94B11F76
:1052A0000C94F3318091B8018F5F8093B8018D33F6
:1052B0001CF081E08093B80161E080E20E94B11FA0
:1052C0000C94F331E12C21E53CE142E263E280E021
:1052D0000E94A4230C94F331023061F00430E1F019
:1052E000013011F00C94F33163E080E00E94B11FB3
:1052F0000C94F3318091B8012CE38202C001112497
:1053000090935D0180935C010E948B0F62E080E0CE
:105310000E94B11F0C94F3318091B8018F5F80938C
:10532000B8018091B8016FE10E9402369093B801F4
:1053300061E082E20E94B11F0C94F331EE24E39409
:105340002EED3CE144E26AE180E00E94A4230C944B
:10535000F331023091F0043059F1013009F050C0BE
:10536000809178018F7E809378010E940D1863E010
:1053700080E00E94B11F0C94F331809178018F7E00
:10538000809378010E940D1880915B018F7C80933F
:105390005B018091B80190915B01892B80935B0147
:1053A0000E94970F62E080E00E94B11F0C94F331DD
:1053B0008091B801803241F0803321F0803139F49E
:1053C00080E206C080E104C01092B80103C080E30F
:1053D0008093B8018091B801882331F080917801E1
:1053E00080618093780107C0809178018F7E8093DF
:1053F00078010E940D1861E084E20E94B11FF3C79A
:105400008091B6019091B7018033954709F0EBC7C1
:10541000809178018F7E809378010E940D18E3C7F8
:10542000E12C20E030E046E26DE380E00E94A4231E
:10543000DAC7E12C2CE53CE147E26AE280E00E9419
:10544000A423D1C7023059F00430E9F0013061F5EE
:105450000E94531863E080E00E94B11FC4C780918E
:10546000B8018B3049F48091B9018093B80162E0B2
:1054700088E20E94B11FB7C70E940A1762E080E06D
:105480000E94B11FB0C78091B8018F5F8093B801AF
:105490008091B8016CE00E9402369093B80161E0FF
:1054A00087E20E94B11F9FC78091B6019091B7011A
:1054B0008033954709F097C70E94531894C702306C
:1054C00059F0043031F1013079F70E94531863E04C
:1054D00080E00E94B11F87C78091B8018093B90115
:1054E0009091BA018091B80189171CF48091BA019A
:1054F00009C08091B801181614F081E003C08091B2
:10550000B8018F5F8093B80162E089E20E94B11F09
:105510006AC78091B8018F5F8093B8018A301CF010
:105520008BEF8093B80161E088E20E94B11F5BC7F6
:10553000023061F00430C9F0013009F0B5CF0E94AB
:10554000531863E080E00E94B11F4DC78091B901FC
:1055500080939A018091B80180939B010E940A1761
:1055600062E080E00E94B11F3EC78091B8018F5F6A
:105570008093B80185315CF08091B901181614F060
:1055800081E003C08091B9018F5F8093B80161E031
:1055900089E20E94B11F27C7E12C21E73CE14BE2E1
:1055A0006CE280E00E94A4231EC70430B1F128F40D
:1055B0000130C9F00230F1F077C0053009F456C06F
:1055C000063009F071C0E091B8010E2E000CFF0BFF
:1055D000E858FE4F8FE080AB0E942E1761E08BE20F
:1055E0000E94B11F00C70E94511763E080E00E9433
:1055F000B11FF9C68091B8018F5F8093B8018930DF
:105600002CF461E08BE20E94B11FEDC662E080E005
:105610000E94B11F0E941A17E6C6E091B8010E2E33
:10562000000CFF0BE858FE4F80A9E091B8010E2E48
:10563000000CFF0BE858FE4F803F78F480A9E09102
:10564000B8010E2E000CFF0BE858FE4F20A965E0B4
:105650000E94F635280F20AB02C08FE080AB0E947D
:105660002E1761E08BE20E94B11FBDC61092B801F7
:105670009FE08091B801893074F4E091B8010E2E5A
:10568000000CFF0BE858FE4F90AB8091B8018F5F84
:105690008093B801EECF1092B8010E942E1761E0FE
:1056A0008BE20E94B11F9FC68091B6019091B70115
:1056B0008033954709F097C60E94511794C6E12C94
:1056C00020E030E04DE26BE380E00E94A4238BC633
:1056D000E12C24E73CE14EE26FE280E00E94A4234B
:1056E00082C6023051F00430F9F0013009F07BC677
:1056F00063E080E00E94B11F76C68091B8018823E4
:1057000049F09091B801915081E001C0880F9A95BD
:10571000EAF701C080E080939C010E946D1762E06F
:1057200080E00E94B11F5FC68091B8018F5F8093B7
:10573000B8018091B801893014F01092B80161E08D
:105740008EE20E94B11F4FC6E12C22E83CE140E30B
:1057500065E380E00E94A42346C6023051F0043085
:1057600011F1013009F03FC663E080E00E94B11FF3
:105770003AC68091B801882361F08091A1018068C8
:105780008093A1010E948E1763E080E00E94B11F08
:105790002AC68091A1018F778093A10163E081E304
:1057A0000E94B11F20C68091B80180588093B80133
:1057B00061E080E30E94B11F16C6023059F0043048
:1057C00071F00130E9F40E94731763E080E00E94F9
:1057D000B11F09C661E082E30E94B11F04C6809137
:1057E000A1018F5F8093A1018091A10168E10E94D6
:1057F000F6359093A10161E081E30E94B11FF3C5EA
:105800008091B6019091B7018033954709F0EBC5BF
:105810000E947317E8C5023059F0043071F001306E
:1058200079F70E94731763E080E00E94B11FDBC527
:1058300062E083E30E94B11FD6C58091A2018F5F11
:105840008093A2018091A2016CE30E94F6359093AF
:10585000A20161E082E30E94B11FC5C5023059F088
:10586000043071F0013061F60E94731763E080E04C
:105870000E94B11FB8C561E084E30E94B11FB3C5A7
:105880008091A3018F5F8093A3018091A30168E1C0
:105890000E94F6359093A30161E083E30E94B11F5B
:1058A000A2C5023061F0043089F0013009F0A8CFC0
:1058B0000E94731763E080E00E94B11F94C50E94AC
:1058C0008E1762E080E00E94B11F8DC58091A40117
:1058D0008F5F8093A4018091A4016CE30E94F63550
:1058E0009093A40161E084E30E94B11F7CC5E12C88
:1058F00028E83CE146E368E380E00E94A42373C506
:10590000023051F00430D9F1013009F06CC563E088
:1059100080E00E94B11F67C58091B8018E3341F0CD
:105920001CF481111AC004C0813411F08F37A9F41E
:105930008091B8018093A5010E94AF178091A501C5
:105940009091A601809589238093A6010E94F0176B
:1059500062E080E00E94B11F46C51092BA018091BA
:10596000A5018093B8018091B801811103C08FE730
:105970008093B80162E087E30E94B11F34C5809133
:10598000B8018E3369F024F481110EC08FE705C091
:10599000813441F08F3741F48EE38093B80106C023
:1059A00081E4FBCF80E8F9CF1092B80161E086E393
:1059B0000E94B11F18C5023051F0043059F1013076
:1059C00009F011C563E080E00E94B11F0CC5809111
:1059D000BA01863054F48091BA018F5F8093BA0186
:1059E00061E087E30E94B11FFEC48091B8018093FB
:1059F000A5010E94AF178091A5019091A601809505
:105A000089238093A6010E94F01762E080E00E9443
:105A1000B11FE9C43091BA012091B80181E090E052
:105A200001C0880F3A95EAF782278093B80161E0B8
:105A300087E30E94B11FD7C4E12C2DE83CE149E384
:105A40006DE280E00E94A423CEC4023051F0043005
:105A5000D9F1013009F0C7C463E080E00E94B11FB2
:105A6000C2C48091B8018E3341F01CF481111AC078
:105A700004C0813411F08F37A9F48091B80180936C
:105A8000A6010E94F0178091A6019091A501809532
:105A900089238093A5010E94AF1762E080E00E94F5
:105AA000B11FA1C41092BA018091A6018093B801E0
:105AB0008091B801811103C08FE78093B80162E043
:105AC0008AE30E94B11F8FC48091B8018E3369F0C0
:105AD00024F481110EC08FE705C0813441F08F3767
